{
  "address": "0xe68a06c7999625F0a91bb3975213460807053AA8",
  "abi": [
    {
      "anonymous": false,
      "inputs": [
        {
          "indexed": true,
          "internalType": "address",
          "name": "user",
          "type": "address"
        },
        {
          "indexed": true,
          "internalType": "uint256",
          "name": "pid",
          "type": "uint256"
        },
        {
          "indexed": false,
          "internalType": "uint256",
          "name": "amount",
          "type": "uint256"
        }
      ],
      "name": "DepositDapp",
      "type": "event"
    },
    {
      "anonymous": false,
      "inputs": [
        {
          "indexed": true,
          "internalType": "address",
          "name": "user",
          "type": "address"
        },
        {
          "indexed": true,
          "internalType": "uint256",
          "name": "pid",
          "type": "uint256"
        },
        {
          "indexed": false,
          "internalType": "uint256",
          "name": "amount",
          "type": "uint256"
        }
      ],
      "name": "DepositDappBnt",
      "type": "event"
    },
    {
      "anonymous": false,
      "inputs": [
        {
          "indexed": false,
          "internalType": "uint8",
          "name": "version",
          "type": "uint8"
        }
      ],
      "name": "Initialized",
      "type": "event"
    },
    {
      "anonymous": false,
      "inputs": [
        {
          "indexed": true,
          "internalType": "address",
          "name": "previousOwner",
          "type": "address"
        },
        {
          "indexed": true,
          "internalType": "address",
          "name": "newOwner",
          "type": "address"
        }
      ],
      "name": "OwnershipTransferred",
      "type": "event"
    },
    {
      "anonymous": false,
      "inputs": [
        {
          "indexed": false,
          "internalType": "uint256",
          "name": "newId",
          "type": "uint256"
        },
        {
          "indexed": true,
          "internalType": "address",
          "name": "provider",
          "type": "address"
        }
      ],
      "name": "PositionTransferred",
      "type": "event"
    },
    {
      "anonymous": false,
      "inputs": [
        {
          "indexed": true,
          "internalType": "address",
          "name": "user",
          "type": "address"
        },
        {
          "indexed": true,
          "internalType": "uint256",
          "name": "pid",
          "type": "uint256"
        },
        {
          "indexed": false,
          "internalType": "uint256",
          "name": "amount",
          "type": "uint256"
        }
      ],
      "name": "withdrawDapp",
      "type": "event"
    },
    {
      "anonymous": false,
      "inputs": [
        {
          "indexed": true,
          "internalType": "address",
          "name": "user",
          "type": "address"
        },
        {
          "indexed": true,
          "internalType": "uint256",
          "name": "pid",
          "type": "uint256"
        },
        {
          "indexed": false,
          "internalType": "uint256",
          "name": "amount",
          "type": "uint256"
        }
      ],
      "name": "withdrawDappBnt",
      "type": "event"
    },
    {
      "inputs": [
        {
          "internalType": "uint256",
          "name": "_allocPoint",
          "type": "uint256"
        },
        {
          "internalType": "uint256",
          "name": "_timeLocked",
          "type": "uint256"
        }
      ],
      "name": "add",
      "outputs": [],
      "stateMutability": "nonpayable",
      "type": "function"
    },
    {
      "inputs": [],
      "name": "bntToken",
      "outputs": [
        {
          "internalType": "contract IERC20Upgradeable",
          "name": "",
          "type": "address"
        }
      ],
      "stateMutability": "view",
      "type": "function"
    },
    {
      "inputs": [],
      "name": "burnBnt",
      "outputs": [],
      "stateMutability": "nonpayable",
      "type": "function"
    },
    {
      "inputs": [
        {
          "internalType": "uint256",
          "name": "num",
          "type": "uint256"
        }
      ],
      "name": "claimBnt",
      "outputs": [],
      "stateMutability": "nonpayable",
      "type": "function"
    },
    {
      "inputs": [
        {
          "internalType": "uint256",
          "name": "pid",
          "type": "uint256"
        }
      ],
      "name": "claimUserBnt",
      "outputs": [],
      "stateMutability": "nonpayable",
      "type": "function"
    },
    {
      "inputs": [],
      "name": "dappBntPoolAnchor",
      "outputs": [
        {
          "internalType": "address",
          "name": "",
          "type": "address"
        }
      ],
      "stateMutability": "view",
      "type": "function"
    },
    {
      "inputs": [],
      "name": "dappILSupply",
      "outputs": [
        {
          "internalType": "uint256",
          "name": "",
          "type": "uint256"
        }
      ],
      "stateMutability": "view",
      "type": "function"
    },
    {
      "inputs": [],
      "name": "dappPerBlock",
      "outputs": [
        {
          "internalType": "uint256",
          "name": "",
          "type": "uint256"
        }
      ],
      "stateMutability": "view",
      "type": "function"
    },
    {
      "inputs": [],
      "name": "dappRewardsSupply",
      "outputs": [
        {
          "internalType": "uint256",
          "name": "",
          "type": "uint256"
        }
      ],
      "stateMutability": "view",
      "type": "function"
    },
    {
      "inputs": [],
      "name": "dappToken",
      "outputs": [
        {
          "internalType": "contract IERC20Upgradeable",
          "name": "",
          "type": "address"
        }
      ],
      "stateMutability": "view",
      "type": "function"
    },
    {
      "inputs": [
        {
          "internalType": "uint256",
          "name": "dappRewardsAmount",
          "type": "uint256"
        },
        {
          "internalType": "uint256",
          "name": "dappILAmount",
          "type": "uint256"
        }
      ],
      "name": "fund",
      "outputs": [],
      "stateMutability": "nonpayable",
      "type": "function"
    },
    {
      "inputs": [
        {
          "internalType": "uint256",
          "name": "pid",
          "type": "uint256"
        },
        {
          "internalType": "address",
          "name": "user",
          "type": "address"
        }
      ],
      "name": "getPendingRewards",
      "outputs": [
        {
          "internalType": "uint256",
          "name": "",
          "type": "uint256"
        }
      ],
      "stateMutability": "view",
      "type": "function"
    },
    {
      "inputs": [
        {
          "internalType": "uint256",
          "name": "pid",
          "type": "uint256"
        }
      ],
      "name": "harvest",
      "outputs": [],
      "stateMutability": "nonpayable",
      "type": "function"
    },
    {
      "inputs": [
        {
          "internalType": "address",
          "name": "_liquidityProtection",
          "type": "address"
        },
        {
          "internalType": "address",
          "name": "_liquidityProtectionStore",
          "type": "address"
        },
        {
          "internalType": "address",
          "name": "_dappBntPoolAnchor",
          "type": "address"
        },
        {
          "internalType": "address",
          "name": "_dappToken",
          "type": "address"
        },
        {
          "internalType": "address",
          "name": "_bntToken",
          "type": "address"
        },
        {
          "internalType": "uint256",
          "name": "_startBlock",
          "type": "uint256"
        },
        {
          "internalType": "uint256",
          "name": "_dappPerBlock",
          "type": "uint256"
        }
      ],
      "name": "initialize",
      "outputs": [],
      "stateMutability": "nonpayable",
      "type": "function"
    },
    {
      "inputs": [],
      "name": "liquidityProtection",
      "outputs": [
        {
          "internalType": "contract ILiquidityProtection",
          "name": "",
          "type": "address"
        }
      ],
      "stateMutability": "view",
      "type": "function"
    },
    {
      "inputs": [],
      "name": "liquidityProtectionStore",
      "outputs": [
        {
          "internalType": "contract ILiquidityProtectionStore",
          "name": "",
          "type": "address"
        }
      ],
      "stateMutability": "view",
      "type": "function"
    },
    {
      "inputs": [
        {
          "internalType": "uint256",
          "name": "newId",
          "type": "uint256"
        },
        {
          "internalType": "address",
          "name": "provider",
          "type": "address"
        },
        {
          "internalType": "bytes",
          "name": "data",
          "type": "bytes"
        }
      ],
      "name": "onTransferPosition",
      "outputs": [],
      "stateMutability": "nonpayable",
      "type": "function"
    },
    {
      "inputs": [],
      "name": "owner",
      "outputs": [
        {
          "internalType": "address",
          "name": "",
          "type": "address"
        }
      ],
      "stateMutability": "view",
      "type": "function"
    },
    {
      "inputs": [],
      "name": "pendingBntIlBurn",
      "outputs": [
        {
          "internalType": "uint256",
          "name": "",
          "type": "uint256"
        }
      ],
      "stateMutability": "view",
      "type": "function"
    },
    {
      "inputs": [
        {
          "internalType": "uint256",
          "name": "",
          "type": "uint256"
        }
      ],
      "name": "poolInfo",
      "outputs": [
        {
          "internalType": "uint256",
          "name": "allocPoint",
          "type": "uint256"
        },
        {
          "internalType": "uint256",
          "name": "timeLocked",
          "type": "uint256"
        },
        {
          "internalType": "uint256",
          "name": "lastRewardBlock",
          "type": "uint256"
        },
        {
          "internalType": "uint256",
          "name": "accDappPerShare",
          "type": "uint256"
        },
        {
          "internalType": "uint256",
          "name": "totalDappStaked",
          "type": "uint256"
        },
        {
          "internalType": "uint256",
          "name": "totalDappBntStaked",
          "type": "uint256"
        },
        {
          "internalType": "uint256",
          "name": "totalLpStaked",
          "type": "uint256"
        }
      ],
      "stateMutability": "view",
      "type": "function"
    },
    {
      "inputs": [],
      "name": "renounceOwnership",
      "outputs": [],
      "stateMutability": "nonpayable",
      "type": "function"
    },
    {
      "inputs": [
        {
          "internalType": "uint256",
          "name": "pid",
          "type": "uint256"
        },
        {
          "internalType": "uint256",
          "name": "_allocPoint",
          "type": "uint256"
        }
      ],
      "name": "set",
      "outputs": [],
      "stateMutability": "nonpayable",
      "type": "function"
    },
    {
      "inputs": [
        {
          "internalType": "uint256",
          "name": "_dappPerBlock",
          "type": "uint256"
        }
      ],
      "name": "setDappPerBlock",
      "outputs": [],
      "stateMutability": "nonpayable",
      "type": "function"
    },
    {
      "inputs": [
        {
          "internalType": "uint256",
          "name": "amount",
          "type": "uint256"
        },
        {
          "internalType": "uint256",
          "name": "pid",
          "type": "uint256"
        }
      ],
      "name": "stakeDapp",
      "outputs": [],
      "stateMutability": "nonpayable",
      "type": "function"
    },
    {
      "inputs": [
        {
          "internalType": "uint256",
          "name": "amount",
          "type": "uint256"
        },
        {
          "internalType": "uint256",
          "name": "pid",
          "type": "uint256"
        }
      ],
      "name": "stakeDappBnt",
      "outputs": [],
      "stateMutability": "nonpayable",
      "type": "function"
    },
    {
      "inputs": [],
      "name": "startBlock",
      "outputs": [
        {
          "internalType": "uint256",
          "name": "",
          "type": "uint256"
        }
      ],
      "stateMutability": "view",
      "type": "function"
    },
    {
      "inputs": [],
      "name": "totalAllocPoint",
      "outputs": [
        {
          "internalType": "uint256",
          "name": "",
          "type": "uint256"
        }
      ],
      "stateMutability": "view",
      "type": "function"
    },
    {
      "inputs": [
        {
          "internalType": "address",
          "name": "newOwner",
          "type": "address"
        }
      ],
      "name": "transferOwnership",
      "outputs": [],
      "stateMutability": "nonpayable",
      "type": "function"
    },
    {
      "inputs": [
        {
          "internalType": "uint256",
          "name": "pid",
          "type": "uint256"
        }
      ],
      "name": "unstakeDapp",
      "outputs": [],
      "stateMutability": "nonpayable",
      "type": "function"
    },
    {
      "inputs": [
        {
          "internalType": "uint256",
          "name": "amount",
          "type": "uint256"
        },
        {
          "internalType": "uint256",
          "name": "pid",
          "type": "uint256"
        }
      ],
      "name": "unstakeDappBnt",
      "outputs": [],
      "stateMutability": "nonpayable",
      "type": "function"
    },
    {
      "inputs": [
        {
          "internalType": "uint256",
          "name": "",
          "type": "uint256"
        },
        {
          "internalType": "address",
          "name": "",
          "type": "address"
        }
      ],
      "name": "userPoolInfo",
      "outputs": [
        {
          "internalType": "uint256",
          "name": "amount",
          "type": "uint256"
        },
        {
          "internalType": "uint256",
          "name": "dappStaked",
          "type": "uint256"
        },
        {
          "internalType": "uint256",
          "name": "lpAmount",
          "type": "uint256"
        },
        {
          "internalType": "uint256",
          "name": "pending",
          "type": "uint256"
        },
        {
          "internalType": "uint256",
          "name": "rewardDebt",
          "type": "uint256"
        },
        {
          "internalType": "uint256",
          "name": "positionId",
          "type": "uint256"
        },
        {
          "internalType": "uint256",
          "name": "depositTime",
          "type": "uint256"
        },
        {
          "internalType": "uint256",
          "name": "claimableBnt",
          "type": "uint256"
        },
        {
          "internalType": "uint256",
          "name": "bntLocked",
          "type": "uint256"
        }
      ],
      "stateMutability": "view",
      "type": "function"
    },
    {
      "inputs": [
        {
          "internalType": "uint256",
          "name": "",
          "type": "uint256"
        }
      ],
      "name": "userPoolTotalEntries",
      "outputs": [
        {
          "internalType": "uint256",
          "name": "",
          "type": "uint256"
        }
      ],
      "stateMutability": "view",
      "type": "function"
    }
  ],
  "transactionHash": "0xbc9c2a8b544880a66ec0c2c9d7b7b3993c6c5690e2c57b66602448dffd990322",
  "args": [],
  "numDeployments": 2,
  "solcInputHash": "55197adb802978cc27700261b8ac5bd7",
  "bytecode": "0x608060405234801561001057600080fd5b5061359d806100206000396000f3fe608060405234801561001057600080fd5b50600436106101f05760003560e01c8063796aea461161010f578063b33f9527116100a2578063ddc6326211610071578063ddc63262146104c8578063e8ee2942146104db578063eab1ae73146104e4578063f2fde38b146104f757600080fd5b8063b33f952714610486578063bbc57e7214610499578063c3d27087146104ac578063ca7da2e0146104bf57600080fd5b80639dbc6750116100de5780639dbc67501461043a578063a65e2cfd1461044d578063af6c0f6014610460578063af9c4fe51461047357600080fd5b8063796aea46146103f0578063818bd4f51461040357806385dc0aaf146104165780638da5cb5b1461042957600080fd5b806345de6fe0116101875780635eb186f8116101565780635eb186f8146103af5780636f7c1638146103c2578063715018a6146103d5578063771602f7146103dd57600080fd5b806345de6fe0146102dd57806348cd4cb1146102e65780634e27072a146102ef5780635c2ba8451461039c57600080fd5b80632b9dae2f116101c35780632b9dae2f146102995780632d25e5f5146102ac57806342d450ab146102b5578063458d4bfd146102d557600080fd5b80631526fe27146101f557806317caf6f1146102425780631ab06ee514610259578063232393dc1461026e575b600080fd5b610208610203366004613190565b61050a565b604080519788526020880196909652948601939093526060850191909152608084015260a083015260c082015260e0015b60405180910390f35b61024b609e5481565b604051908152602001610239565b61026c6102673660046131a9565b61055c565b005b609754610281906001600160a01b031681565b6040516001600160a01b039091168152602001610239565b61026c6102a7366004613190565b610640565b61024b60a15481565b61024b6102c3366004613190565b60a46020526000908152604090205481565b61026c610826565b61024b609f5481565b61024b609d5481565b6103586102fd3660046131e0565b60a3602052816000526040600020602052806000526040600020600091509150508060000154908060010154908060020154908060030154908060040154908060050154908060060154908060070154908060080154905089565b60408051998a5260208a0198909852968801959095526060870193909352608086019190915260a085015260c084015260e083015261010082015261012001610239565b61026c6103aa366004613210565b610942565b609954610281906001600160a01b031681565b61026c6103d0366004613190565b610ccf565b61026c610e2c565b61026c6103eb3660046131a9565b610e92565b61026c6103fe3660046131a9565b611071565b61026c610411366004613190565b611503565b61024b6104243660046131e0565b61156a565b6033546001600160a01b0316610281565b61026c610448366004613190565b611692565b61026c61045b3660046131a9565b611721565b609a54610281906001600160a01b031681565b61026c6104813660046131a9565b6117d3565b61026c610494366004613299565b611980565b61026c6104a73660046131a9565b611ebd565b609854610281906001600160a01b031681565b61024b609c5481565b61026c6104d6366004613190565b612065565b61024b60a05481565b609b54610281906001600160a01b031681565b61026c61050536600461331c565b61219b565b60a2818154811061051a57600080fd5b90600052602060002090600702016000915090508060000154908060010154908060020154908060030154908060040154908060050154908060060154905087565b6033546001600160a01b031633146105bb5760405162461bcd60e51b815260206004820181905260248201527f4f776e61626c653a2063616c6c6572206973206e6f7420746865206f776e657260448201526064015b60405180910390fd5b6105c361227a565b600060a283815481106105d8576105d8613339565b90600052602060002090600702016000015490508160a2848154811061060057610600613339565b600091825260209091206007909102015580821461063b576106378261063183609e546122a190919063ffffffff16565b906122b4565b609e555b505050565b6002606554036106925760405162461bcd60e51b815260206004820152601f60248201527f5265656e7472616e637947756172643a207265656e7472616e742063616c6c0060448201526064016105b2565b6002606581905550600060a282815481106106af576106af613339565b90600052602060002090600702016040518060e00160405290816000820154815260200160018201548152602001600282015481526020016003820154815260200160048201548152602001600582015481526020016006820154815250509050600060a360008481526020019081526020016000206000336001600160a01b03166001600160a01b0316815260200190815260200160002060405180610120016040529081600082015481526020016001820154815260200160028201548152602001600382015481526020016004820154815260200160058201548152602001600682015481526020016007820154815260200160088201548152505090504282602001518260c001516107c59190613365565b11156108135760405162461bcd60e51b815260206004820152600c60248201527f5374696c6c206c6f636b6564000000000000000000000000000000000000000060448201526064016105b2565b61081c836122c0565b5050600160655550565b600060a154116108785760405162461bcd60e51b815260206004820152601660248201527f6e6f2070656e64696e6720626e7420746f206275726e0000000000000000000060448201526064016105b2565b609a546040516370a0823160e01b81523060048201526000916001600160a01b0316906370a0823190602401602060405180830381865afa1580156108c1573d6000803e3d6000fd5b505050506040513d601f19601f820116820180604052508101906108e5919061337d565b905060a15481106109165760a180546000909155609a54610912906001600160a01b031661dead836126cc565b5050565b60a15461092390826122a1565b60a155609a5461093f906001600160a01b031661dead836126cc565b50565b6097546001600160a01b0316331461099c5760405162461bcd60e51b815260206004820152601960248201527f4c69717569646974792070726f74656374696f6e206f6e6c790000000000000060448201526064016105b2565b60006109aa82840184613190565b90506109b581612775565b600081815260a3602090815260408083206001600160a01b0388168452909152812060a28054919291849081106109ee576109ee613339565b906000526020600020906007020190508160050154600014610a785760405162461bcd60e51b815260206004820152602160248201527f7573657220616c72656164792068617320706f736974696f6e20696e20706f6f60448201527f6c0000000000000000000000000000000000000000000000000000000000000060648201526084016105b2565b6098546040517f5290ffbb000000000000000000000000000000000000000000000000000000008152600481018990526000918291829182916001600160a01b0390911690635290ffbb9060240161010060405180830381865afa158015610ae4573d6000803e3d6000fd5b505050506040513d601f19601f82011682018060405250810190610b089190613396565b505050945094505093509350836001600160a01b0316306001600160a01b031614610b3257600080fd5b609b546001600160a01b03848116911614610b8f5760405162461bcd60e51b815260206004820152601360248201527f77726f6e6720706f736974696f6e20747970650000000000000000000000000060448201526064016105b2565b855415610bed576000610bd08760040154610bca64e8d4a51000610bc48a600301548c6000015461283590919063ffffffff16565b90612841565b906122a1565b6003880154909150610be290826122b4565b600388015550610c0d565b600087815260a460205260408120805491610c0783613413565b91905055505b6004850154610c1c90826122b4565b60048601556006850154610c3090836122b4565b6006860155600586018b90558554610c4890836122b4565b86556001860154610c5990826122b4565b600187015560038501548654610c799164e8d4a5100091610bc491612835565b60048701554260068701556040518b81526001600160a01b038b16907f5a5dd07e850317c0ad52f598509348a01f97aa8b18322de3a1991cc62e10a1399060200160405180910390a25050505050505050505050565b600081815260a36020908152604080832033845290915290206008810154421015610d3c5760405162461bcd60e51b815260206004820152601060248201527f424e54207374696c6c206c6f636b65640000000000000000000000000000000060448201526064016105b2565b609a546040516370a0823160e01b81523060048201526000916001600160a01b0316906370a0823190602401602060405180830381865afa158015610d85573d6000803e3d6000fd5b505050506040513d601f19601f82011682018060405250810190610da9919061337d565b600783015490915080821015610e015760405162461bcd60e51b815260206004820152601960248201527f696e73756666696369656e7420626e7420746f20636c61696d0000000000000060448201526064016105b2565b6000600784018190556008840155609a54610e26906001600160a01b031633836126cc565b50505050565b6033546001600160a01b03163314610e865760405162461bcd60e51b815260206004820181905260248201527f4f776e61626c653a2063616c6c6572206973206e6f7420746865206f776e657260448201526064016105b2565b610e90600061284d565b565b6033546001600160a01b03163314610eec5760405162461bcd60e51b815260206004820181905260248201527f4f776e61626c653a2063616c6c6572206973206e6f7420746865206f776e657260448201526064016105b2565b610ef461227a565b6000609d544311610f0757609d54610f09565b435b609e54909150610f1990846122b4565b609e556040805160e0810182529384526020840192835283019081526000606084018181526080850182815260a0860183815260c0870184815260a28054600181018255955296517faaf4f58de99300cfadc4585755f376d5fa747d5bc561d5bd9d710de1f91bf42d60079095029485015594517faaf4f58de99300cfadc4585755f376d5fa747d5bc561d5bd9d710de1f91bf42e84015592517faaf4f58de99300cfadc4585755f376d5fa747d5bc561d5bd9d710de1f91bf42f830155517faaf4f58de99300cfadc4585755f376d5fa747d5bc561d5bd9d710de1f91bf43082015590517faaf4f58de99300cfadc4585755f376d5fa747d5bc561d5bd9d710de1f91bf43182015590517faaf4f58de99300cfadc4585755f376d5fa747d5bc561d5bd9d710de1f91bf43282015590517faaf4f58de99300cfadc4585755f376d5fa747d5bc561d5bd9d710de1f91bf43390910155565b6002606554036110c35760405162461bcd60e51b815260206004820152601f60248201527f5265656e7472616e637947756172643a207265656e7472616e742063616c6c0060448201526064016105b2565b60026065556110d181612775565b600081815260a360209081526040808320338452909152812060a280549192918490811061110157611101613339565b90600052602060002090600702019050816000015460000361113d57600083815260a46020526040812080549161113783613413565b91905055505b6001820154156113c25760006111758360040154610bca64e8d4a51000610bc48660030154886000015461283590919063ffffffff16565b600384015490915061118790826122b4565b60038401556099546040516370a0823160e01b81523360048201526000916001600160a01b0316906370a0823190602401602060405180830381865afa1580156111d5573d6000803e3d6000fd5b505050506040513d601f19601f820116820180604052508101906111f9919061337d565b9050611204856122c0565b6099546040516370a0823160e01b81523360048201526000916001600160a01b0316906370a0823190602401602060405180830381865afa15801561124d573d6000803e3d6000fd5b505050506040513d601f19601f82011682018060405250810190611271919061337d565b905061128182610bca89846122b4565b60995490975061129a906001600160a01b0316886128b7565b609754609b546099546040517fe4a767260000000000000000000000000000000000000000000000000000000081526001600160a01b03928316600482015290821660248201526044810184905292995060009291169063e4a76726906064016020604051808303816000875af1158015611319573d6000803e3d6000fd5b505050506040513d601f19601f8201168201806040525081019061133d919061337d565b9050600061134a826129bb565b600687015490915061135c90826122b4565b60068701556004860154611370908a6122b4565b600487015560058701829055865461138890826122b4565b808855600188018a905560038701546113ac9164e8d4a5100091610bc49190612835565b60048801555050426006860155506114f8915050565b6099546113d8906001600160a01b0316856128b7565b609754609b546099546040517fe4a767260000000000000000000000000000000000000000000000000000000081526001600160a01b03928316600482015290821660248201526044810184905292965060009291169063e4a76726906064016020604051808303816000875af1158015611457573d6000803e3d6000fd5b505050506040513d601f19601f8201168201806040525081019061147b919061337d565b90506000611488826129bb565b600684015490915061149a90826122b4565b600684015560048301546114ae90876122b4565b60048401556005840182905583546114c690826122b4565b8085556001850187905560038401546114ea9164e8d4a5100091610bc49190612835565b600485015550504260068301555b505060016065555050565b6033546001600160a01b0316331461155d5760405162461bcd60e51b815260206004820181905260248201527f4f776e61626c653a2063616c6c6572206973206e6f7420746865206f776e657260448201526064016105b2565b61156561227a565b609c55565b600082815260a3602090815260408083206001600160a01b0385168452909152812060a28054839190869081106115a3576115a3613339565b906000526020600020906007020190506000816003015490508160020154431180156115d25750600682015415155b156116525760006115f08360020154436122a190919063ffffffff16565b9050600061161d609e54610bc48660000154611617609c548761283590919063ffffffff16565b90612835565b905061164d6116428560060154610bc464e8d4a510008561283590919063ffffffff16565b6003860154906122b4565b925050505b61168861167d8460040154610bca64e8d4a51000610bc486896000015461283590919063ffffffff16565b6003850154906122b4565b9695505050505050565b6097546001600160a01b031663630d8c6360006116b0846001613365565b6040517fffffffff0000000000000000000000000000000000000000000000000000000060e085901b16815260048101929092526024820152604401600060405180830381600087803b15801561170657600080fd5b505af115801561171a573d6000803e3d6000fd5b5050505050565b6002606554036117735760405162461bcd60e51b815260206004820152601f60248201527f5265656e7472616e637947756172643a207265656e7472616e742063616c6c0060448201526064016105b2565b600260655560995461178e906001600160a01b0316836128b7565b6099549092506117a7906001600160a01b0316826128b7565b60a0549091506117b790836122b4565b60a055609f546117c790826122b4565b609f5550506001606555565b6002606554036118255760405162461bcd60e51b815260206004820152601f60248201527f5265656e7472616e637947756172643a207265656e7472616e742063616c6c0060448201526064016105b2565b600260655561183381612065565b600081815260a360209081526040808320338452909152812060a280549192918490811061186357611863613339565b9060005260206000209060070201905042816001015483600601546118889190613365565b11156118d65760405162461bcd60e51b815260206004820152600c60248201527f5374696c6c206c6f636b6564000000000000000000000000000000000000000060448201526064016105b2565b60068101546118e590856122a1565b600682015560058101546118f990856122a1565b6005820155815461190a90856122a1565b8255600282015461191b90856122a1565b60028301556003810154825461193b9164e8d4a5100091610bc491612835565b6004830155815460000361196957600083815260a4602052604081208054916119638361342d565b91905055505b609b546114f8906001600160a01b031633866126cc565b600061198c6001612a56565b905080156119a4576000805461ff0019166101001790555b6119ac612ba8565b6119b4612c1b565b609780547fffffffffffffffffffffffff00000000000000000000000000000000000000009081166001600160a01b038b81169182179093556098805483168b8516179055609b805483168a8516179055609980548316898516908117909155609a805490931693881693909317909155609d859055609c849055611a4a91906fffffffffffffffffffffffffffffffff612c8e565b60a26040518060e00160405280600081526020016000815260200185815260200160008152602001600081526020016000815260200160008152509080600181540180825580915050600190039060005260206000209060070201600090919091909150600082015181600001556020820151816001015560408201518160020155606082015181600301556080820151816004015560a0820151816005015560c08201518160060155505060a26040518060e001604052806101dc81526020016276a700815260200185815260200160008152602001600081526020016000815260200160008152509080600181540180825580915050600190039060005260206000209060070201600090919091909150600082015181600001556020820151816001015560408201518160020155606082015181600301556080820151816004015560a0820151816005015560c08201518160060155505060a26040518060e001604052806103b88152602001629e3400815260200185815260200160008152602001600081526020016000815260200160008152509080600181540180825580915050600190039060005260206000209060070201600090919091909150600082015181600001556020820151816001015560408201518160020155606082015181600301556080820151816004015560a0820151816005015560c08201518160060155505060a26040518060e00160405280610771815260200163013c6800815260200185815260200160008152602001600081526020016000815260200160008152509080600181540180825580915050600190039060005260206000209060070201600090919091909150600082015181600001556020820151816001015560408201518160020155606082015181600301556080820151816004015560a0820151816005015560c08201518160060155505060a26040518060e00160405280610b2981526020016302c7ea00815260200185815260200160008152602001600081526020016000815260200160008152509080600181540180825580915050600190039060005260206000209060070201600090919091909150600082015181600001556020820151816001015560408201518160020155606082015181600301556080820151816004015560a0820151816005015560c08201518160060155505060a26040518060e00160405280610ee281526020016303b53800815260200185815260200160008152602001600081526020016000815260200160008152509080600181540180825580915050600190039060005260206000209060070201600090919091909150600082015181600001556020820151816001015560408201518160020155606082015181600301556080820151816004015560a0820151816005015560c082015181600601555050612710609e819055508015611eb3576000805461ff0019169055604051600181527f7f26b83ff96e1f2b6a682f133852f6798a09c465da95921460cefb38474024989060200160405180910390a15b5050505050505050565b600260655403611f0f5760405162461bcd60e51b815260206004820152601f60248201527f5265656e7472616e637947756172643a207265656e7472616e742063616c6c0060448201526064016105b2565b6002606555611f1d81612775565b600081815260a360209081526040808320338452909152812060a2805491929184908110611f4d57611f4d613339565b600091825260209091208354600790920201915015611fb1576000611f948360040154610bca64e8d4a51000610bc48660030154886000015461283590919063ffffffff16565b6003840154909150611fa690826122b4565b600384015550611fd1565b600083815260a460205260408120805491611fcb83613413565b91905055505b609b54611fe7906001600160a01b0316856128b7565b6006820154909450611ff990856122b4565b6006820155600581015461200d90856122b4565b6005820155815461201e90856122b4565b8255600282015461202f90856122b4565b60028301556003810154825461204f9164e8d4a5100091610bc491612835565b6004830155504260069091015550506001606555565b61206e81612775565b600081815260a360209081526040808320338452909152812060a280549192918490811061209e5761209e613339565b9060005260206000209060070201905060006120df61167d8460040154610bca64e8d4a51000610bc48760030154896000015461283590919063ffffffff16565b90508015610e26578060a05411156121465760a0546120fe90826122a1565b60a055600060038085019190915582015483546121259164e8d4a5100091610bc491612835565b6004840155609954612141906001600160a01b031633836126cc565b610e26565b60a0546121549082906122a1565b60038085019190915582015483546121769164e8d4a5100091610bc491612835565b600484015560a08054600090915560995461171a906001600160a01b031633836126cc565b6033546001600160a01b031633146121f55760405162461bcd60e51b815260206004820181905260248201527f4f776e61626c653a2063616c6c6572206973206e6f7420746865206f776e657260448201526064016105b2565b6001600160a01b0381166122715760405162461bcd60e51b815260206004820152602660248201527f4f776e61626c653a206e6577206f776e657220697320746865207a65726f206160448201527f646472657373000000000000000000000000000000000000000000000000000060648201526084016105b2565b61093f8161284d565b60a25460005b818110156109125761229181612775565b61229a81613413565b9050612280565b60006122ad8284613444565b9392505050565b60006122ad8284613365565b6122c981612065565b600081815260a360209081526040808320338452909152812060a28054919291849081106122f9576122f9613339565b90600052602060002090600702019050600061231883600501546129bb565b6099546040516370a0823160e01b81523060048201529192506000916001600160a01b03909116906370a0823190602401602060405180830381865afa158015612366573d6000803e3d6000fd5b505050506040513d601f19601f8201168201806040525081019061238a919061337d565b60975460058601546040517f6d533e9b0000000000000000000000000000000000000000000000000000000081526004810191909152620f4240602482015242604482015291925060009182916001600160a01b031690636d533e9b906064016060604051808303816000875af1158015612409573d6000803e3d6000fd5b505050506040513d601f19601f8201168201806040525081019061242d919061345b565b60975460058a01546040517f782ed90c0000000000000000000000000000000000000000000000000000000081526004810191909152620f424060248201529395509093506001600160a01b03169163782ed90c9150604401600060405180830381600087803b1580156124a057600080fd5b505af11580156124b4573d6000803e3d6000fd5b50506099546040516370a0823160e01b8152306004820152600093506001600160a01b0390911691506370a0823190602401602060405180830381865afa158015612503573d6000803e3d6000fd5b505050506040513d601f19601f82011682018060405250810190612527919061337d565b9050600061253582866122a1565b600688015490915061254790876122a1565b60068801556001880154600488015461255f916122a1565b6004880155875461257090876122a1565b808955600388015461258d9164e8d4a5100091610bc49190612835565b6004890155600188015460009085106125aa5788600101546125ac565b845b600060018b0181905560058b018190558a54919250036125e65760008a815260a4602052604081208054916125e08361342d565b91905055505b818111156126995760006125fa82846122a1565b905080609f54106126415760a15461261290866122b4565b60a155609f5461262290826122a1565b609f5560995461263c906001600160a01b031633846126cc565b612693565b60078a015461265090866122b4565b60078b01556126624262015180613365565b60088b0155609f805460009091556126913361267e86846122b4565b6099546001600160a01b031691906126cc565b505b506126c0565b60a1546126a690856122b4565b60a1556099546126c0906001600160a01b031633846126cc565b50505050505050505050565b6040516001600160a01b03831660248201526044810182905261063b9084907fa9059cbb00000000000000000000000000000000000000000000000000000000906064015b60408051601f198184030181529190526020810180517bffffffffffffffffffffffffffffffffffffffffffffffffffffffff167fffffffff0000000000000000000000000000000000000000000000000000000090931692909217909152612ddc565b600060a2828154811061278a5761278a613339565b90600052602060002090600702019050806002015443116127a9575050565b80600601546000036127bf574360029091015550565b60006127d88260020154436122a190919063ffffffff16565b905060006127ff609e54610bc48560000154611617609c548761283590919063ffffffff16565b905061282461167d8460060154610bc464e8d4a510008561283590919063ffffffff16565b600384015550504360029091015550565b60006122ad8284613489565b60006122ad82846134a8565b603380546001600160a01b038381167fffffffffffffffffffffffff0000000000000000000000000000000000000000831681179093556040519116919082907f8be0079c531659141344cd1fd0a4f28419497f9722a3daafe3b4186f6b6457e090600090a35050565b6040516370a0823160e01b815230600482015260009081906001600160a01b038516906370a0823190602401602060405180830381865afa158015612900573d6000803e3d6000fd5b505050506040513d601f19601f82011682018060405250810190612924919061337d565b905061293b6001600160a01b038516333086612ec1565b6040516370a0823160e01b81523060048201526000906001600160a01b038616906370a0823190602401602060405180830381865afa158015612982573d6000803e3d6000fd5b505050506040513d601f19601f820116820180604052508101906129a6919061337d565b90506129b281836122a1565b95945050505050565b6098546040517f5290ffbb0000000000000000000000000000000000000000000000000000000081526004810183905260009182916001600160a01b0390911690635290ffbb9060240161010060405180830381865afa158015612a23573d6000803e3d6000fd5b505050506040513d601f19601f82011682018060405250810190612a479190613396565b50929998505050505050505050565b60008054610100900460ff1615612af3578160ff166001148015612a795750303b155b612aeb5760405162461bcd60e51b815260206004820152602e60248201527f496e697469616c697a61626c653a20636f6e747261637420697320616c72656160448201527f647920696e697469616c697a656400000000000000000000000000000000000060648201526084016105b2565b506000919050565b60005460ff808416911610612b705760405162461bcd60e51b815260206004820152602e60248201527f496e697469616c697a61626c653a20636f6e747261637420697320616c72656160448201527f647920696e697469616c697a656400000000000000000000000000000000000060648201526084016105b2565b50600080547fffffffffffffffffffffffffffffffffffffffffffffffffffffffffffffff001660ff92909216919091179055600190565b600054610100900460ff16612c135760405162461bcd60e51b815260206004820152602b60248201527f496e697469616c697a61626c653a20636f6e7472616374206973206e6f74206960448201526a6e697469616c697a696e6760a81b60648201526084016105b2565b610e90612f12565b600054610100900460ff16612c865760405162461bcd60e51b815260206004820152602b60248201527f496e697469616c697a61626c653a20636f6e7472616374206973206e6f74206960448201526a6e697469616c697a696e6760a81b60648201526084016105b2565b610e90612f86565b801580612d2157506040517fdd62ed3e0000000000000000000000000000000000000000000000000000000081523060048201526001600160a01b03838116602483015284169063dd62ed3e90604401602060405180830381865afa158015612cfb573d6000803e3d6000fd5b505050506040513d601f19601f82011682018060405250810190612d1f919061337d565b155b612d935760405162461bcd60e51b815260206004820152603660248201527f5361666545524332303a20617070726f76652066726f6d206e6f6e2d7a65726f60448201527f20746f206e6f6e2d7a65726f20616c6c6f77616e63650000000000000000000060648201526084016105b2565b6040516001600160a01b03831660248201526044810182905261063b9084907f095ea7b30000000000000000000000000000000000000000000000000000000090606401612711565b6000612e31826040518060400160405280602081526020017f5361666545524332303a206c6f772d6c6576656c2063616c6c206661696c6564815250856001600160a01b0316612ff89092919063ffffffff16565b80519091501561063b5780806020019051810190612e4f91906134ca565b61063b5760405162461bcd60e51b815260206004820152602a60248201527f5361666545524332303a204552433230206f7065726174696f6e20646964206e60448201527f6f7420737563636565640000000000000000000000000000000000000000000060648201526084016105b2565b6040516001600160a01b0380851660248301528316604482015260648101829052610e269085907f23b872dd0000000000000000000000000000000000000000000000000000000090608401612711565b600054610100900460ff16612f7d5760405162461bcd60e51b815260206004820152602b60248201527f496e697469616c697a61626c653a20636f6e7472616374206973206e6f74206960448201526a6e697469616c697a696e6760a81b60648201526084016105b2565b610e903361284d565b600054610100900460ff16612ff15760405162461bcd60e51b815260206004820152602b60248201527f496e697469616c697a61626c653a20636f6e7472616374206973206e6f74206960448201526a6e697469616c697a696e6760a81b60648201526084016105b2565b6001606555565b6060613007848460008561300f565b949350505050565b6060824710156130875760405162461bcd60e51b815260206004820152602660248201527f416464726573733a20696e73756666696369656e742062616c616e636520666f60448201527f722063616c6c000000000000000000000000000000000000000000000000000060648201526084016105b2565b6001600160a01b0385163b6130de5760405162461bcd60e51b815260206004820152601d60248201527f416464726573733a2063616c6c20746f206e6f6e2d636f6e747261637400000060448201526064016105b2565b600080866001600160a01b031685876040516130fa9190613518565b60006040518083038185875af1925050503d8060008114613137576040519150601f19603f3d011682016040523d82523d6000602084013e61313c565b606091505b509150915061314c828286613157565b979650505050505050565b606083156131665750816122ad565b8251156131765782518084602001fd5b8160405162461bcd60e51b81526004016105b29190613534565b6000602082840312156131a257600080fd5b5035919050565b600080604083850312156131bc57600080fd5b50508035926020909101359150565b6001600160a01b038116811461093f57600080fd5b600080604083850312156131f357600080fd5b823591506020830135613205816131cb565b809150509250929050565b6000806000806060858703121561322657600080fd5b843593506020850135613238816131cb565b9250604085013567ffffffffffffffff8082111561325557600080fd5b818701915087601f83011261326957600080fd5b81358181111561327857600080fd5b88602082850101111561328a57600080fd5b95989497505060200194505050565b600080600080600080600060e0888a0312156132b457600080fd5b87356132bf816131cb565b965060208801356132cf816131cb565b955060408801356132df816131cb565b945060608801356132ef816131cb565b935060808801356132ff816131cb565b9699959850939692959460a0840135945060c09093013592915050565b60006020828403121561332e57600080fd5b81356122ad816131cb565b634e487b7160e01b600052603260045260246000fd5b634e487b7160e01b600052601160045260246000fd5b600082198211156133785761337861334f565b500190565b60006020828403121561338f57600080fd5b5051919050565b600080600080600080600080610100898b0312156133b357600080fd5b88516133be816131cb565b60208a01519098506133cf816131cb565b60408a01519097506133e0816131cb565b60608a015160808b015160a08c015160c08d015160e0909d01519b9e9a9d50929b919a9099929850909650945092505050565b600060001982036134265761342661334f565b5060010190565b60008161343c5761343c61334f565b506000190190565b6000828210156134565761345661334f565b500390565b60008060006060848603121561347057600080fd5b8351925060208401519150604084015190509250925092565b60008160001904831182151516156134a3576134a361334f565b500290565b6000826134c557634e487b7160e01b600052601260045260246000fd5b500490565b6000602082840312156134dc57600080fd5b815180151581146122ad57600080fd5b60005b838110156135075781810151838201526020016134ef565b83811115610e265750506000910152565b6000825161352a8184602087016134ec565b9190910192915050565b60208152600082518060208401526135538160408501602087016134ec565b601f01601f1916919091016040019291505056fea26469706673582212200247db5129ff3904e2efae0cd4c4b358ca2599d8878fe9335932e0f5bca00cb564736f6c634300080d0033",
  "devdoc": {
    "kind": "dev",
    "methods": {
      "add(uint256,uint256)": {
        "details": "Allows owner to add pool"
      },
      "burnBnt()": {
        "details": "Allows user or dao to burn BNT"
      },
      "claimBnt(uint256)": {
        "details": "Allows user to claim BNT for pools contract. User must wait 24 hours for BNT to unlock, after can call and receive."
      },
      "claimUserBnt(uint256)": {
        "details": "Allows user to claim BNT. User must wait 24 hours for BNT to unlock, then call claimBnt before claiming"
      },
      "fund(uint256,uint256)": {
        "details": "Allows user or dao to fund IL protection and/or staking rewards"
      },
      "getPendingRewards(uint256,address)": {
        "details": "Returns pending rewards of user"
      },
      "harvest(uint256)": {
        "details": "Allows user to harvest rewards"
      },
      "onTransferPosition(uint256,address,bytes)": {
        "details": "Transfers position to pools contract"
      },
      "owner()": {
        "details": "Returns the address of the current owner."
      },
      "renounceOwnership()": {
        "details": "Leaves the contract without owner. It will not be possible to call `onlyOwner` functions anymore. Can only be called by the current owner. NOTE: Renouncing ownership will leave the contract without an owner, thereby removing any functionality that is only available to the owner."
      },
      "set(uint256,uint256)": {
        "details": "Allows owner to set pool allocation point"
      },
      "setDappPerBlock(uint256)": {
        "details": "Allows owner to set DAPP token rewards issued per block"
      },
      "stakeDapp(uint256,uint256)": {
        "details": "Allows user to single sided stake DAPP tokens"
      },
      "stakeDappBnt(uint256,uint256)": {
        "details": "if there is no more bnt for single sided staking, users can still stake dapp-bnt tokens"
      },
      "transferOwnership(address)": {
        "details": "Transfers ownership of the contract to a new account (`newOwner`). Can only be called by the current owner."
      },
      "unstakeDapp(uint256)": {
        "details": "Allows user to unstake single sided staked DAPP tokens"
      },
      "unstakeDappBnt(uint256,uint256)": {
        "details": "Returns DAPPBNT LP tokens to user"
      }
    },
    "version": 1
  },
  "userdoc": {
    "kind": "user",
    "methods": {},
    "version": 1
  },
  "storageLayout": {
    "storage": [
      {
        "astId": 130,
        "contract": "contracts/DappStakingPool.sol:DappStakingPool",
        "label": "_initialized",
        "offset": 0,
        "slot": "0",
        "type": "t_uint8"
      },
      {
        "astId": 133,
        "contract": "contracts/DappStakingPool.sol:DappStakingPool",
        "label": "_initializing",
        "offset": 1,
        "slot": "0",
        "type": "t_bool"
      },
      {
        "astId": 910,
        "contract": "contracts/DappStakingPool.sol:DappStakingPool",
        "label": "__gap",
        "offset": 0,
        "slot": "1",
        "type": "t_array(t_uint256)50_storage"
      },
      {
        "astId": 10,
        "contract": "contracts/DappStakingPool.sol:DappStakingPool",
        "label": "_owner",
        "offset": 0,
        "slot": "51",
        "type": "t_address"
      },
      {
        "astId": 122,
        "contract": "contracts/DappStakingPool.sol:DappStakingPool",
        "label": "__gap",
        "offset": 0,
        "slot": "52",
        "type": "t_array(t_uint256)49_storage"
      },
      {
        "astId": 279,
        "contract": "contracts/DappStakingPool.sol:DappStakingPool",
        "label": "_status",
        "offset": 0,
        "slot": "101",
        "type": "t_uint256"
      },
      {
        "astId": 323,
        "contract": "contracts/DappStakingPool.sol:DappStakingPool",
        "label": "__gap",
        "offset": 0,
        "slot": "102",
        "type": "t_array(t_uint256)49_storage"
      },
      {
        "astId": 3198,
        "contract": "contracts/DappStakingPool.sol:DappStakingPool",
        "label": "liquidityProtection",
        "offset": 0,
        "slot": "151",
        "type": "t_contract(ILiquidityProtection)5400"
      },
      {
        "astId": 3201,
        "contract": "contracts/DappStakingPool.sol:DappStakingPool",
        "label": "liquidityProtectionStore",
        "offset": 0,
        "slot": "152",
        "type": "t_contract(ILiquidityProtectionStore)5424"
      },
      {
        "astId": 3204,
        "contract": "contracts/DappStakingPool.sol:DappStakingPool",
        "label": "dappToken",
        "offset": 0,
        "slot": "153",
        "type": "t_contract(IERC20Upgradeable)402"
      },
      {
        "astId": 3207,
        "contract": "contracts/DappStakingPool.sol:DappStakingPool",
        "label": "bntToken",
        "offset": 0,
        "slot": "154",
        "type": "t_contract(IERC20Upgradeable)402"
      },
      {
        "astId": 3209,
        "contract": "contracts/DappStakingPool.sol:DappStakingPool",
        "label": "dappBntPoolAnchor",
        "offset": 0,
        "slot": "155",
        "type": "t_address"
      },
      {
        "astId": 3211,
        "contract": "contracts/DappStakingPool.sol:DappStakingPool",
        "label": "dappPerBlock",
        "offset": 0,
        "slot": "156",
        "type": "t_uint256"
      },
      {
        "astId": 3213,
        "contract": "contracts/DappStakingPool.sol:DappStakingPool",
        "label": "startBlock",
        "offset": 0,
        "slot": "157",
        "type": "t_uint256"
      },
      {
        "astId": 3215,
        "contract": "contracts/DappStakingPool.sol:DappStakingPool",
        "label": "totalAllocPoint",
        "offset": 0,
        "slot": "158",
        "type": "t_uint256"
      },
      {
        "astId": 3217,
        "contract": "contracts/DappStakingPool.sol:DappStakingPool",
        "label": "dappILSupply",
        "offset": 0,
        "slot": "159",
        "type": "t_uint256"
      },
      {
        "astId": 3219,
        "contract": "contracts/DappStakingPool.sol:DappStakingPool",
        "label": "dappRewardsSupply",
        "offset": 0,
        "slot": "160",
        "type": "t_uint256"
      },
      {
        "astId": 3221,
        "contract": "contracts/DappStakingPool.sol:DappStakingPool",
        "label": "pendingBntIlBurn",
        "offset": 0,
        "slot": "161",
        "type": "t_uint256"
      },
      {
        "astId": 3225,
        "contract": "contracts/DappStakingPool.sol:DappStakingPool",
        "label": "poolInfo",
        "offset": 0,
        "slot": "162",
        "type": "t_array(t_struct(PoolInfo)3195_storage)dyn_storage"
      },
      {
        "astId": 3232,
        "contract": "contracts/DappStakingPool.sol:DappStakingPool",
        "label": "userPoolInfo",
        "offset": 0,
        "slot": "163",
        "type": "t_mapping(t_uint256,t_mapping(t_address,t_struct(UserPoolInfo)3180_storage))"
      },
      {
        "astId": 3236,
        "contract": "contracts/DappStakingPool.sol:DappStakingPool",
        "label": "userPoolTotalEntries",
        "offset": 0,
        "slot": "164",
        "type": "t_mapping(t_uint256,t_uint256)"
      }
    ],
    "types": {
      "t_address": {
        "encoding": "inplace",
        "label": "address",
        "numberOfBytes": "20"
      },
      "t_array(t_struct(PoolInfo)3195_storage)dyn_storage": {
        "base": "t_struct(PoolInfo)3195_storage",
        "encoding": "dynamic_array",
        "label": "struct DappStakingPool.PoolInfo[]",
        "numberOfBytes": "32"
      },
      "t_array(t_uint256)49_storage": {
        "base": "t_uint256",
        "encoding": "inplace",
        "label": "uint256[49]",
        "numberOfBytes": "1568"
      },
      "t_array(t_uint256)50_storage": {
        "base": "t_uint256",
        "encoding": "inplace",
        "label": "uint256[50]",
        "numberOfBytes": "1600"
      },
      "t_bool": {
        "encoding": "inplace",
        "label": "bool",
        "numberOfBytes": "1"
      },
      "t_contract(IERC20Upgradeable)402": {
        "encoding": "inplace",
        "label": "contract IERC20Upgradeable",
        "numberOfBytes": "20"
      },
      "t_contract(ILiquidityProtection)5400": {
        "encoding": "inplace",
        "label": "contract ILiquidityProtection",
        "numberOfBytes": "20"
      },
      "t_contract(ILiquidityProtectionStore)5424": {
        "encoding": "inplace",
        "label": "contract ILiquidityProtectionStore",
        "numberOfBytes": "20"
      },
      "t_mapping(t_address,t_struct(UserPoolInfo)3180_storage)": {
        "encoding": "mapping",
        "key": "t_address",
        "label": "mapping(address => struct DappStakingPool.UserPoolInfo)",
        "numberOfBytes": "32",
        "value": "t_struct(UserPoolInfo)3180_storage"
      },
      "t_mapping(t_uint256,t_mapping(t_address,t_struct(UserPoolInfo)3180_storage))": {
        "encoding": "mapping",
        "key": "t_uint256",
        "label": "mapping(uint256 => mapping(address => struct DappStakingPool.UserPoolInfo))",
        "numberOfBytes": "32",
        "value": "t_mapping(t_address,t_struct(UserPoolInfo)3180_storage)"
      },
      "t_mapping(t_uint256,t_uint256)": {
        "encoding": "mapping",
        "key": "t_uint256",
        "label": "mapping(uint256 => uint256)",
        "numberOfBytes": "32",
        "value": "t_uint256"
      },
      "t_struct(PoolInfo)3195_storage": {
        "encoding": "inplace",
        "label": "struct DappStakingPool.PoolInfo",
        "members": [
          {
            "astId": 3182,
            "contract": "contracts/DappStakingPool.sol:DappStakingPool",
            "label": "allocPoint",
            "offset": 0,
            "slot": "0",
            "type": "t_uint256"
          },
          {
            "astId": 3184,
            "contract": "contracts/DappStakingPool.sol:DappStakingPool",
            "label": "timeLocked",
            "offset": 0,
            "slot": "1",
            "type": "t_uint256"
          },
          {
            "astId": 3186,
            "contract": "contracts/DappStakingPool.sol:DappStakingPool",
            "label": "lastRewardBlock",
            "offset": 0,
            "slot": "2",
            "type": "t_uint256"
          },
          {
            "astId": 3188,
            "contract": "contracts/DappStakingPool.sol:DappStakingPool",
            "label": "accDappPerShare",
            "offset": 0,
            "slot": "3",
            "type": "t_uint256"
          },
          {
            "astId": 3190,
            "contract": "contracts/DappStakingPool.sol:DappStakingPool",
            "label": "totalDappStaked",
            "offset": 0,
            "slot": "4",
            "type": "t_uint256"
          },
          {
            "astId": 3192,
            "contract": "contracts/DappStakingPool.sol:DappStakingPool",
            "label": "totalDappBntStaked",
            "offset": 0,
            "slot": "5",
            "type": "t_uint256"
          },
          {
            "astId": 3194,
            "contract": "contracts/DappStakingPool.sol:DappStakingPool",
            "label": "totalLpStaked",
            "offset": 0,
            "slot": "6",
            "type": "t_uint256"
          }
        ],
        "numberOfBytes": "224"
      },
      "t_struct(UserPoolInfo)3180_storage": {
        "encoding": "inplace",
        "label": "struct DappStakingPool.UserPoolInfo",
        "members": [
          {
            "astId": 3163,
            "contract": "contracts/DappStakingPool.sol:DappStakingPool",
            "label": "amount",
            "offset": 0,
            "slot": "0",
            "type": "t_uint256"
          },
          {
            "astId": 3165,
            "contract": "contracts/DappStakingPool.sol:DappStakingPool",
            "label": "dappStaked",
            "offset": 0,
            "slot": "1",
            "type": "t_uint256"
          },
          {
            "astId": 3167,
            "contract": "contracts/DappStakingPool.sol:DappStakingPool",
            "label": "lpAmount",
            "offset": 0,
            "slot": "2",
            "type": "t_uint256"
          },
          {
            "astId": 3169,
            "contract": "contracts/DappStakingPool.sol:DappStakingPool",
            "label": "pending",
            "offset": 0,
            "slot": "3",
            "type": "t_uint256"
          },
          {
            "astId": 3171,
            "contract": "contracts/DappStakingPool.sol:DappStakingPool",
            "label": "rewardDebt",
            "offset": 0,
            "slot": "4",
            "type": "t_uint256"
          },
          {
            "astId": 3173,
            "contract": "contracts/DappStakingPool.sol:DappStakingPool",
            "label": "positionId",
            "offset": 0,
            "slot": "5",
            "type": "t_uint256"
          },
          {
            "astId": 3175,
            "contract": "contracts/DappStakingPool.sol:DappStakingPool",
            "label": "depositTime",
            "offset": 0,
            "slot": "6",
            "type": "t_uint256"
          },
          {
            "astId": 3177,
            "contract": "contracts/DappStakingPool.sol:DappStakingPool",
            "label": "claimableBnt",
            "offset": 0,
            "slot": "7",
            "type": "t_uint256"
          },
          {
            "astId": 3179,
            "contract": "contracts/DappStakingPool.sol:DappStakingPool",
            "label": "bntLocked",
            "offset": 0,
            "slot": "8",
            "type": "t_uint256"
          }
        ],
        "numberOfBytes": "288"
      },
      "t_uint256": {
        "encoding": "inplace",
        "label": "uint256",
        "numberOfBytes": "32"
      },
      "t_uint8": {
        "encoding": "inplace",
        "label": "uint8",
        "numberOfBytes": "1"
      }
    }
  }
}