{
  "address": "0xB5663a8bb7E38d53B5c5C3a304e1b9692e289280",
  "abi": [
    {
      "anonymous": false,
      "inputs": [
        {
          "indexed": true,
          "internalType": "address",
          "name": "user",
          "type": "address"
        },
        {
          "indexed": true,
          "internalType": "uint256",
          "name": "pid",
          "type": "uint256"
        },
        {
          "indexed": false,
          "internalType": "uint256",
          "name": "amount",
          "type": "uint256"
        }
      ],
      "name": "DepositDapp",
      "type": "event"
    },
    {
      "anonymous": false,
      "inputs": [
        {
          "indexed": true,
          "internalType": "address",
          "name": "user",
          "type": "address"
        },
        {
          "indexed": true,
          "internalType": "uint256",
          "name": "pid",
          "type": "uint256"
        },
        {
          "indexed": false,
          "internalType": "uint256",
          "name": "amount",
          "type": "uint256"
        }
      ],
      "name": "DepositDappBnt",
      "type": "event"
    },
    {
      "anonymous": false,
      "inputs": [
        {
          "indexed": false,
          "internalType": "uint8",
          "name": "version",
          "type": "uint8"
        }
      ],
      "name": "Initialized",
      "type": "event"
    },
    {
      "anonymous": false,
      "inputs": [
        {
          "indexed": true,
          "internalType": "address",
          "name": "previousOwner",
          "type": "address"
        },
        {
          "indexed": true,
          "internalType": "address",
          "name": "newOwner",
          "type": "address"
        }
      ],
      "name": "OwnershipTransferred",
      "type": "event"
    },
    {
      "anonymous": false,
      "inputs": [
        {
          "indexed": false,
          "internalType": "uint256",
          "name": "newId",
          "type": "uint256"
        },
        {
          "indexed": true,
          "internalType": "address",
          "name": "provider",
          "type": "address"
        }
      ],
      "name": "PositionTransferred",
      "type": "event"
    },
    {
      "anonymous": false,
      "inputs": [
        {
          "indexed": true,
          "internalType": "address",
          "name": "user",
          "type": "address"
        },
        {
          "indexed": true,
          "internalType": "uint256",
          "name": "pid",
          "type": "uint256"
        },
        {
          "indexed": false,
          "internalType": "uint256",
          "name": "amount",
          "type": "uint256"
        }
      ],
      "name": "withdrawDapp",
      "type": "event"
    },
    {
      "anonymous": false,
      "inputs": [
        {
          "indexed": true,
          "internalType": "address",
          "name": "user",
          "type": "address"
        },
        {
          "indexed": true,
          "internalType": "uint256",
          "name": "pid",
          "type": "uint256"
        },
        {
          "indexed": false,
          "internalType": "uint256",
          "name": "amount",
          "type": "uint256"
        }
      ],
      "name": "withdrawDappBnt",
      "type": "event"
    },
    {
      "inputs": [
        {
          "internalType": "uint256",
          "name": "_allocPoint",
          "type": "uint256"
        },
        {
          "internalType": "uint256",
          "name": "_timeLocked",
          "type": "uint256"
        }
      ],
      "name": "add",
      "outputs": [],
      "stateMutability": "nonpayable",
      "type": "function"
    },
    {
      "inputs": [],
      "name": "bntToken",
      "outputs": [
        {
          "internalType": "contract IERC20Upgradeable",
          "name": "",
          "type": "address"
        }
      ],
      "stateMutability": "view",
      "type": "function"
    },
    {
      "inputs": [],
      "name": "burnBnt",
      "outputs": [],
      "stateMutability": "nonpayable",
      "type": "function"
    },
    {
      "inputs": [
        {
          "internalType": "uint256",
          "name": "num",
          "type": "uint256"
        }
      ],
      "name": "claimBnt",
      "outputs": [],
      "stateMutability": "nonpayable",
      "type": "function"
    },
    {
      "inputs": [
        {
          "internalType": "uint256",
          "name": "pid",
          "type": "uint256"
        }
      ],
      "name": "claimUserBnt",
      "outputs": [],
      "stateMutability": "nonpayable",
      "type": "function"
    },
    {
      "inputs": [],
      "name": "dappBntPoolAnchor",
      "outputs": [
        {
          "internalType": "address",
          "name": "",
          "type": "address"
        }
      ],
      "stateMutability": "view",
      "type": "function"
    },
    {
      "inputs": [],
      "name": "dappILSupply",
      "outputs": [
        {
          "internalType": "uint256",
          "name": "",
          "type": "uint256"
        }
      ],
      "stateMutability": "view",
      "type": "function"
    },
    {
      "inputs": [],
      "name": "dappPerBlock",
      "outputs": [
        {
          "internalType": "uint256",
          "name": "",
          "type": "uint256"
        }
      ],
      "stateMutability": "view",
      "type": "function"
    },
    {
      "inputs": [],
      "name": "dappRewardsSupply",
      "outputs": [
        {
          "internalType": "uint256",
          "name": "",
          "type": "uint256"
        }
      ],
      "stateMutability": "view",
      "type": "function"
    },
    {
      "inputs": [],
      "name": "dappToken",
      "outputs": [
        {
          "internalType": "contract IERC20Upgradeable",
          "name": "",
          "type": "address"
        }
      ],
      "stateMutability": "view",
      "type": "function"
    },
    {
      "inputs": [
        {
          "internalType": "uint256",
          "name": "dappRewardsAmount",
          "type": "uint256"
        },
        {
          "internalType": "uint256",
          "name": "dappILAmount",
          "type": "uint256"
        }
      ],
      "name": "fund",
      "outputs": [],
      "stateMutability": "nonpayable",
      "type": "function"
    },
    {
      "inputs": [
        {
          "internalType": "uint256",
          "name": "pid",
          "type": "uint256"
        },
        {
          "internalType": "address",
          "name": "user",
          "type": "address"
        }
      ],
      "name": "getPendingRewards",
      "outputs": [
        {
          "internalType": "uint256",
          "name": "",
          "type": "uint256"
        }
      ],
      "stateMutability": "view",
      "type": "function"
    },
    {
      "inputs": [
        {
          "internalType": "uint256",
          "name": "pid",
          "type": "uint256"
        }
      ],
      "name": "harvest",
      "outputs": [],
      "stateMutability": "nonpayable",
      "type": "function"
    },
    {
      "inputs": [
        {
          "internalType": "address",
          "name": "_liquidityProtection",
          "type": "address"
        },
        {
          "internalType": "address",
          "name": "_liquidityProtectionStore",
          "type": "address"
        },
        {
          "internalType": "address",
          "name": "_dappBntPoolAnchor",
          "type": "address"
        },
        {
          "internalType": "address",
          "name": "_dappToken",
          "type": "address"
        },
        {
          "internalType": "address",
          "name": "_bntToken",
          "type": "address"
        },
        {
          "internalType": "uint256",
          "name": "_startBlock",
          "type": "uint256"
        },
        {
          "internalType": "uint256",
          "name": "_dappPerBlock",
          "type": "uint256"
        }
      ],
      "name": "initialize",
      "outputs": [],
      "stateMutability": "nonpayable",
      "type": "function"
    },
    {
      "inputs": [],
      "name": "liquidityProtection",
      "outputs": [
        {
          "internalType": "contract ILiquidityProtection",
          "name": "",
          "type": "address"
        }
      ],
      "stateMutability": "view",
      "type": "function"
    },
    {
      "inputs": [],
      "name": "liquidityProtectionStore",
      "outputs": [
        {
          "internalType": "contract ILiquidityProtectionStore",
          "name": "",
          "type": "address"
        }
      ],
      "stateMutability": "view",
      "type": "function"
    },
    {
      "inputs": [
        {
          "internalType": "uint256",
          "name": "newId",
          "type": "uint256"
        },
        {
          "internalType": "address",
          "name": "provider",
          "type": "address"
        },
        {
          "internalType": "bytes",
          "name": "data",
          "type": "bytes"
        }
      ],
      "name": "onTransferPosition",
      "outputs": [],
      "stateMutability": "nonpayable",
      "type": "function"
    },
    {
      "inputs": [],
      "name": "owner",
      "outputs": [
        {
          "internalType": "address",
          "name": "",
          "type": "address"
        }
      ],
      "stateMutability": "view",
      "type": "function"
    },
    {
      "inputs": [],
      "name": "pendingBntIlBurn",
      "outputs": [
        {
          "internalType": "uint256",
          "name": "",
          "type": "uint256"
        }
      ],
      "stateMutability": "view",
      "type": "function"
    },
    {
      "inputs": [
        {
          "internalType": "uint256",
          "name": "",
          "type": "uint256"
        }
      ],
      "name": "poolInfo",
      "outputs": [
        {
          "internalType": "uint256",
          "name": "allocPoint",
          "type": "uint256"
        },
        {
          "internalType": "uint256",
          "name": "timeLocked",
          "type": "uint256"
        },
        {
          "internalType": "uint256",
          "name": "lastRewardBlock",
          "type": "uint256"
        },
        {
          "internalType": "uint256",
          "name": "accDappPerShare",
          "type": "uint256"
        },
        {
          "internalType": "uint256",
          "name": "totalDappStaked",
          "type": "uint256"
        },
        {
          "internalType": "uint256",
          "name": "totalDappBntStaked",
          "type": "uint256"
        },
        {
          "internalType": "uint256",
          "name": "totalLpStaked",
          "type": "uint256"
        }
      ],
      "stateMutability": "view",
      "type": "function"
    },
    {
      "inputs": [],
      "name": "renounceOwnership",
      "outputs": [],
      "stateMutability": "nonpayable",
      "type": "function"
    },
    {
      "inputs": [
        {
          "internalType": "uint256",
          "name": "pid",
          "type": "uint256"
        },
        {
          "internalType": "uint256",
          "name": "_allocPoint",
          "type": "uint256"
        }
      ],
      "name": "set",
      "outputs": [],
      "stateMutability": "nonpayable",
      "type": "function"
    },
    {
      "inputs": [
        {
          "internalType": "uint256",
          "name": "_dappPerBlock",
          "type": "uint256"
        }
      ],
      "name": "setDappPerBlock",
      "outputs": [],
      "stateMutability": "nonpayable",
      "type": "function"
    },
    {
      "inputs": [
        {
          "internalType": "uint256",
          "name": "amount",
          "type": "uint256"
        },
        {
          "internalType": "uint256",
          "name": "pid",
          "type": "uint256"
        }
      ],
      "name": "stakeDapp",
      "outputs": [],
      "stateMutability": "nonpayable",
      "type": "function"
    },
    {
      "inputs": [
        {
          "internalType": "uint256",
          "name": "amount",
          "type": "uint256"
        },
        {
          "internalType": "uint256",
          "name": "pid",
          "type": "uint256"
        }
      ],
      "name": "stakeDappBnt",
      "outputs": [],
      "stateMutability": "nonpayable",
      "type": "function"
    },
    {
      "inputs": [],
      "name": "startBlock",
      "outputs": [
        {
          "internalType": "uint256",
          "name": "",
          "type": "uint256"
        }
      ],
      "stateMutability": "view",
      "type": "function"
    },
    {
      "inputs": [],
      "name": "totalAllocPoint",
      "outputs": [
        {
          "internalType": "uint256",
          "name": "",
          "type": "uint256"
        }
      ],
      "stateMutability": "view",
      "type": "function"
    },
    {
      "inputs": [
        {
          "internalType": "address",
          "name": "newOwner",
          "type": "address"
        }
      ],
      "name": "transferOwnership",
      "outputs": [],
      "stateMutability": "nonpayable",
      "type": "function"
    },
    {
      "inputs": [
        {
          "internalType": "uint256",
          "name": "pid",
          "type": "uint256"
        }
      ],
      "name": "unstakeDapp",
      "outputs": [],
      "stateMutability": "nonpayable",
      "type": "function"
    },
    {
      "inputs": [
        {
          "internalType": "uint256",
          "name": "amount",
          "type": "uint256"
        },
        {
          "internalType": "uint256",
          "name": "pid",
          "type": "uint256"
        }
      ],
      "name": "unstakeDappBnt",
      "outputs": [],
      "stateMutability": "nonpayable",
      "type": "function"
    },
    {
      "inputs": [
        {
          "internalType": "uint256",
          "name": "",
          "type": "uint256"
        },
        {
          "internalType": "address",
          "name": "",
          "type": "address"
        }
      ],
      "name": "userPoolInfo",
      "outputs": [
        {
          "internalType": "uint256",
          "name": "amount",
          "type": "uint256"
        },
        {
          "internalType": "uint256",
          "name": "dappStaked",
          "type": "uint256"
        },
        {
          "internalType": "uint256",
          "name": "lpAmount",
          "type": "uint256"
        },
        {
          "internalType": "uint256",
          "name": "pending",
          "type": "uint256"
        },
        {
          "internalType": "uint256",
          "name": "rewardDebt",
          "type": "uint256"
        },
        {
          "internalType": "uint256",
          "name": "positionId",
          "type": "uint256"
        },
        {
          "internalType": "uint256",
          "name": "depositTime",
          "type": "uint256"
        },
        {
          "internalType": "uint256",
          "name": "claimableBnt",
          "type": "uint256"
        },
        {
          "internalType": "uint256",
          "name": "bntLocked",
          "type": "uint256"
        }
      ],
      "stateMutability": "view",
      "type": "function"
    },
    {
      "inputs": [
        {
          "internalType": "uint256",
          "name": "",
          "type": "uint256"
        }
      ],
      "name": "userPoolTotalEntries",
      "outputs": [
        {
          "internalType": "uint256",
          "name": "",
          "type": "uint256"
        }
      ],
      "stateMutability": "view",
      "type": "function"
    }
  ],
  "transactionHash": "0x6ee4303aca32354d09c0fb55924a6eea7cb53a01f870c644cb968d94ee128640",
  "args": [],
  "numDeployments": 1,
  "solcInputHash": "d6ac967855c1cf2cd005700cba49017f",
  "bytecode": "0x608060405234801561001057600080fd5b506136eb806100206000396000f3fe608060405234801561001057600080fd5b50600436106101f05760003560e01c8063796aea461161010f578063b33f9527116100a2578063ddc6326211610071578063ddc63262146104c8578063e8ee2942146104db578063eab1ae73146104e4578063f2fde38b146104f7576101f0565b8063b33f952714610486578063bbc57e7214610499578063c3d27087146104ac578063ca7da2e0146104bf576101f0565b80639dbc6750116100de5780639dbc67501461043a578063a65e2cfd1461044d578063af6c0f6014610460578063af9c4fe514610473576101f0565b8063796aea46146103f0578063818bd4f51461040357806385dc0aaf146104165780638da5cb5b14610429576101f0565b806345de6fe0116101875780635eb186f8116101565780635eb186f8146103af5780636f7c1638146103c2578063715018a6146103d5578063771602f7146103dd576101f0565b806345de6fe0146102dd57806348cd4cb1146102e65780634e27072a146102ef5780635c2ba8451461039c576101f0565b80632b9dae2f116101c35780632b9dae2f146102995780632d25e5f5146102ac57806342d450ab146102b5578063458d4bfd146102d5576101f0565b80631526fe27146101f557806317caf6f1146102425780631ab06ee514610259578063232393dc1461026e575b600080fd5b61020861020336600461343e565b61050a565b604080519788526020880196909652948601939093526060850191909152608084015260a083015260c082015260e0015b60405180910390f35b61024b609e5481565b604051908152602001610239565b61026c610267366004613521565b61055c565b005b609754610281906001600160a01b031681565b6040516001600160a01b039091168152602001610239565b61026c6102a736600461343e565b61065c565b61024b60a15481565b61024b6102c336600461343e565b60a46020526000908152604090205481565b61026c610851565b61024b609f5481565b61024b609d5481565b6103586102fd36600461346e565b60a3602052816000526040600020602052806000526040600020600091509150508060000154908060010154908060020154908060030154908060040154908060050154908060060154908060070154908060080154905089565b60408051998a5260208a0198909852968801959095526060870193909352608086019190915260a085015260c084015260e083015261010082015261012001610239565b61026c6103aa36600461349d565b61097e565b609954610281906001600160a01b031681565b61026c6103d036600461343e565b610d28565b61026c610e94565b61026c6103eb366004613521565b610efa565b61026c6103fe366004613521565b6110d9565b61026c61041136600461343e565b6115b7565b61024b61042436600461346e565b61161e565b6033546001600160a01b0316610281565b61026c61044836600461343e565b611754565b61026c61045b366004613521565b6117e3565b609a54610281906001600160a01b031681565b61026c610481366004613521565b611896565b61026c610494366004613320565b611a4f565b61026c6104a7366004613521565b611f8e565b609854610281906001600160a01b031681565b61024b609c5481565b61026c6104d636600461343e565b612145565b61024b60a05481565b609b54610281906001600160a01b031681565b61026c610505366004613304565b612289565b60a2818154811061051a57600080fd5b90600052602060002090600702016000915090508060000154908060010154908060020154908060030154908060040154908060050154908060060154905087565b6033546001600160a01b031633146105bb5760405162461bcd60e51b815260206004820181905260248201527f4f776e61626c653a2063616c6c6572206973206e6f7420746865206f776e657260448201526064015b60405180910390fd5b6105c3612368565b600060a283815481106105e657634e487b7160e01b600052603260045260246000fd5b90600052602060002090600702016000015490508160a2848154811061061c57634e487b7160e01b600052603260045260246000fd5b6000918252602090912060079091020155808214610657576106538261064d83609e5461239390919063ffffffff16565b906123a6565b609e555b505050565b600260655414156106af5760405162461bcd60e51b815260206004820152601f60248201527f5265656e7472616e637947756172643a207265656e7472616e742063616c6c0060448201526064016105b2565b6002606581905550600060a282815481106106da57634e487b7160e01b600052603260045260246000fd5b90600052602060002090600702016040518060e00160405290816000820154815260200160018201548152602001600282015481526020016003820154815260200160048201548152602001600582015481526020016006820154815250509050600060a360008481526020019081526020016000206000336001600160a01b03166001600160a01b0316815260200190815260200160002060405180610120016040529081600082015481526020016001820154815260200160028201548152602001600382015481526020016004820154815260200160058201548152602001600682015481526020016007820154815260200160088201548152505090504282602001518260c001516107f091906135be565b111561083e5760405162461bcd60e51b815260206004820152600c60248201527f5374696c6c206c6f636b6564000000000000000000000000000000000000000060448201526064016105b2565b610847836123b2565b5050600160655550565b600060a154116108a35760405162461bcd60e51b815260206004820152601660248201527f6e6f2070656e64696e6720626e7420746f206275726e0000000000000000000060448201526064016105b2565b609a546040516370a0823160e01b81523060048201526000916001600160a01b0316906370a082319060240160206040518083038186803b1580156108e757600080fd5b505afa1580156108fb573d6000803e3d6000fd5b505050506040513d601f19601f8201168201806040525081019061091f9190613456565b905060a15481106109525760a180546000909155609a5461094c906001600160a01b031661dead836127f6565b5061097b565b60a15461095f9082612393565b60a155609a5461097b906001600160a01b031661dead836127f6565b50565b6097546001600160a01b031633146109d85760405162461bcd60e51b815260206004820152601960248201527f4c69717569646974792070726f74656374696f6e206f6e6c790000000000000060448201526064016105b2565b60006109e68284018461343e565b90506109f18161289f565b600081815260a3602090815260408083206001600160a01b0388168452909152812060a2805491929184908110610a3857634e487b7160e01b600052603260045260246000fd5b906000526020600020906007020190508160050154600014610ac25760405162461bcd60e51b815260206004820152602160248201527f7573657220616c72656164792068617320706f736974696f6e20696e20706f6f60448201527f6c0000000000000000000000000000000000000000000000000000000000000060648201526084016105b2565b6098546040517f5290ffbb000000000000000000000000000000000000000000000000000000008152600481018990526000918291829182916001600160a01b0390911690635290ffbb906024016101006040518083038186803b158015610b2957600080fd5b505afa158015610b3d573d6000803e3d6000fd5b505050506040513d601f19601f82011682018060405250810190610b6191906133a2565b505050945094505093509350836001600160a01b0316306001600160a01b031614610b8b57600080fd5b609b546001600160a01b03848116911614610be85760405162461bcd60e51b815260206004820152601360248201527f77726f6e6720706f736974696f6e20747970650000000000000000000000000060448201526064016105b2565b855415610c46576000610c298760040154610c2364e8d4a51000610c1d8a600301548c6000015461296e90919063ffffffff16565b9061297a565b90612393565b6003880154909150610c3b90826123a6565b600388015550610c66565b600087815260a460205260408120805491610c608361366f565b91905055505b6004850154610c7590826123a6565b60048601556006850154610c8990836123a6565b6006860155600586018b90558554610ca190836123a6565b86556001860154610cb290826123a6565b600187015560038501548654610cd29164e8d4a5100091610c1d9161296e565b60048701554260068701556040518b81526001600160a01b038b16907f5a5dd07e850317c0ad52f598509348a01f97aa8b18322de3a1991cc62e10a1399060200160405180910390a25050505050505050505050565b600081815260a36020908152604080832033845290915290206008810154421015610d955760405162461bcd60e51b815260206004820152601060248201527f424e54207374696c6c206c6f636b65640000000000000000000000000000000060448201526064016105b2565b609a546040516370a0823160e01b81523060048201526000916001600160a01b0316906370a082319060240160206040518083038186803b158015610dd957600080fd5b505afa158015610ded573d6000803e3d6000fd5b505050506040513d601f19601f82011682018060405250810190610e119190613456565b600783015490915080821015610e695760405162461bcd60e51b815260206004820152601960248201527f696e73756666696369656e7420626e7420746f20636c61696d0000000000000060448201526064016105b2565b6000600784018190556008840155609a54610e8e906001600160a01b031633836127f6565b50505050565b6033546001600160a01b03163314610eee5760405162461bcd60e51b815260206004820181905260248201527f4f776e61626c653a2063616c6c6572206973206e6f7420746865206f776e657260448201526064016105b2565b610ef86000612986565b565b6033546001600160a01b03163314610f545760405162461bcd60e51b815260206004820181905260248201527f4f776e61626c653a2063616c6c6572206973206e6f7420746865206f776e657260448201526064016105b2565b610f5c612368565b6000609d544311610f6f57609d54610f71565b435b609e54909150610f8190846123a6565b609e556040805160e0810182529384526020840192835283019081526000606084018181526080850182815260a0860183815260c0870184815260a28054600181018255955296517faaf4f58de99300cfadc4585755f376d5fa747d5bc561d5bd9d710de1f91bf42d60079095029485015594517faaf4f58de99300cfadc4585755f376d5fa747d5bc561d5bd9d710de1f91bf42e84015592517faaf4f58de99300cfadc4585755f376d5fa747d5bc561d5bd9d710de1f91bf42f830155517faaf4f58de99300cfadc4585755f376d5fa747d5bc561d5bd9d710de1f91bf43082015590517faaf4f58de99300cfadc4585755f376d5fa747d5bc561d5bd9d710de1f91bf43182015590517faaf4f58de99300cfadc4585755f376d5fa747d5bc561d5bd9d710de1f91bf43282015590517faaf4f58de99300cfadc4585755f376d5fa747d5bc561d5bd9d710de1f91bf43390910155565b6002606554141561112c5760405162461bcd60e51b815260206004820152601f60248201527f5265656e7472616e637947756172643a207265656e7472616e742063616c6c0060448201526064016105b2565b600260655561113a8161289f565b600081815260a360209081526040808320338452909152812060a280549192918490811061117857634e487b7160e01b600052603260045260246000fd5b906000526020600020906007020190508160000154600014156111b557600083815260a4602052604081208054916111af8361366f565b91905055505b6001820154156114675760006111ed8360040154610c2364e8d4a51000610c1d8660030154886000015461296e90919063ffffffff16565b60038401549091506111ff90826123a6565b60038401556099546040516370a0823160e01b81523360048201526000916001600160a01b0316906370a082319060240160206040518083038186803b15801561124857600080fd5b505afa15801561125c573d6000803e3d6000fd5b505050506040513d601f19601f820116820180604052508101906112809190613456565b905061128b856123b2565b6099546040516370a0823160e01b81523360048201526000916001600160a01b0316906370a082319060240160206040518083038186803b1580156112cf57600080fd5b505afa1580156112e3573d6000803e3d6000fd5b505050506040513d601f19601f820116820180604052508101906113079190613456565b905061131782610c2389846123a6565b609954909750611330906001600160a01b0316886129f0565b609754609b546099546040517fe4a767260000000000000000000000000000000000000000000000000000000081526001600160a01b03928316600482015290821660248201526044810184905292995060009291169063e4a7672690606401602060405180830381600087803b1580156113aa57600080fd5b505af11580156113be573d6000803e3d6000fd5b505050506040513d601f19601f820116820180604052508101906113e29190613456565b905060006113ef82612b12565b600687015490915061140190826123a6565b60068701556004860154611415908a6123a6565b600487015560058701829055865461142d90826123a6565b808855600188018a905560038701546114519164e8d4a5100091610c1d919061296e565b60048801555050426006860155506115ac915050565b60995461147d906001600160a01b0316856129f0565b609754609b546099546040517fe4a767260000000000000000000000000000000000000000000000000000000081526001600160a01b03928316600482015290821660248201526044810184905292965060009291169063e4a7672690606401602060405180830381600087803b1580156114f757600080fd5b505af115801561150b573d6000803e3d6000fd5b505050506040513d601f19601f8201168201806040525081019061152f9190613456565b9050600061153c82612b12565b600684015490915061154e90826123a6565b6006840155600483015461156290876123a6565b600484015560058401829055835461157a90826123a6565b80855560018501879055600384015461159e9164e8d4a5100091610c1d919061296e565b600485015550504260068301555b505060016065555050565b6033546001600160a01b031633146116115760405162461bcd60e51b815260206004820181905260248201527f4f776e61626c653a2063616c6c6572206973206e6f7420746865206f776e657260448201526064016105b2565b611619612368565b609c55565b600082815260a3602090815260408083206001600160a01b0385168452909152812060a280548391908690811061166557634e487b7160e01b600052603260045260246000fd5b906000526020600020906007020190506000816003015490508160020154431180156116945750600682015415155b156117145760006116b283600201544361239390919063ffffffff16565b905060006116df609e54610c1d86600001546116d9609c548761296e90919063ffffffff16565b9061296e565b905061170f6117048560060154610c1d64e8d4a510008561296e90919063ffffffff16565b6003860154906123a6565b925050505b61174a61173f8460040154610c2364e8d4a51000610c1d86896000015461296e90919063ffffffff16565b6003850154906123a6565b9695505050505050565b6097546001600160a01b031663630d8c6360006117728460016135be565b6040517fffffffff0000000000000000000000000000000000000000000000000000000060e085901b16815260048101929092526024820152604401600060405180830381600087803b1580156117c857600080fd5b505af11580156117dc573d6000803e3d6000fd5b5050505050565b600260655414156118365760405162461bcd60e51b815260206004820152601f60248201527f5265656e7472616e637947756172643a207265656e7472616e742063616c6c0060448201526064016105b2565b6002606555609954611851906001600160a01b0316836129f0565b60995490925061186a906001600160a01b0316826129f0565b60a05490915061187a90836123a6565b60a055609f5461188a90826123a6565b609f5550506001606555565b600260655414156118e95760405162461bcd60e51b815260206004820152601f60248201527f5265656e7472616e637947756172643a207265656e7472616e742063616c6c0060448201526064016105b2565b60026065556118f781612145565b600081815260a360209081526040808320338452909152812060a280549192918490811061193557634e487b7160e01b600052603260045260246000fd5b90600052602060002090600702019050428160010154836006015461195a91906135be565b11156119a85760405162461bcd60e51b815260206004820152600c60248201527f5374696c6c206c6f636b6564000000000000000000000000000000000000000060448201526064016105b2565b60068101546119b79085612393565b600682015560058101546119cb9085612393565b600582015581546119dc9085612393565b825560028201546119ed9085612393565b600283015560038101548254611a0d9164e8d4a5100091610c1d9161296e565b60048301558154611a3857600083815260a460205260408120805491611a3283613658565b91905055505b609b546115ac906001600160a01b031633866127f6565b6000611a5b6001612bbe565b90508015611a73576000805461ff0019166101001790555b611a7b612d0d565b611a83612d80565b609780547fffffffffffffffffffffffff00000000000000000000000000000000000000009081166001600160a01b038b811691909117928390556098805483168b8316179055609b805483168a83161790556099805483168983161790819055609a805490931688831617909255609d869055609c859055611b1b9291811691166fffffffffffffffffffffffffffffffff612df3565b60a26040518060e00160405280600081526020016000815260200185815260200160008152602001600081526020016000815260200160008152509080600181540180825580915050600190039060005260206000209060070201600090919091909150600082015181600001556020820151816001015560408201518160020155606082015181600301556080820151816004015560a0820151816005015560c08201518160060155505060a26040518060e001604052806101dc81526020016276a700815260200185815260200160008152602001600081526020016000815260200160008152509080600181540180825580915050600190039060005260206000209060070201600090919091909150600082015181600001556020820151816001015560408201518160020155606082015181600301556080820151816004015560a0820151816005015560c08201518160060155505060a26040518060e001604052806103b88152602001629e3400815260200185815260200160008152602001600081526020016000815260200160008152509080600181540180825580915050600190039060005260206000209060070201600090919091909150600082015181600001556020820151816001015560408201518160020155606082015181600301556080820151816004015560a0820151816005015560c08201518160060155505060a26040518060e00160405280610771815260200163013c6800815260200185815260200160008152602001600081526020016000815260200160008152509080600181540180825580915050600190039060005260206000209060070201600090919091909150600082015181600001556020820151816001015560408201518160020155606082015181600301556080820151816004015560a0820151816005015560c08201518160060155505060a26040518060e00160405280610b2981526020016302c7ea00815260200185815260200160008152602001600081526020016000815260200160008152509080600181540180825580915050600190039060005260206000209060070201600090919091909150600082015181600001556020820151816001015560408201518160020155606082015181600301556080820151816004015560a0820151816005015560c08201518160060155505060a26040518060e00160405280610ee281526020016303b53800815260200185815260200160008152602001600081526020016000815260200160008152509080600181540180825580915050600190039060005260206000209060070201600090919091909150600082015181600001556020820151816001015560408201518160020155606082015181600301556080820151816004015560a0820151816005015560c082015181600601555050612710609e819055508015611f84576000805461ff0019169055604051600181527f7f26b83ff96e1f2b6a682f133852f6798a09c465da95921460cefb38474024989060200160405180910390a15b5050505050505050565b60026065541415611fe15760405162461bcd60e51b815260206004820152601f60248201527f5265656e7472616e637947756172643a207265656e7472616e742063616c6c0060448201526064016105b2565b6002606555611fef8161289f565b600081815260a360209081526040808320338452909152812060a280549192918490811061202d57634e487b7160e01b600052603260045260246000fd5b6000918252602090912083546007909202019150156120915760006120748360040154610c2364e8d4a51000610c1d8660030154886000015461296e90919063ffffffff16565b600384015490915061208690826123a6565b6003840155506120b1565b600083815260a4602052604081208054916120ab8361366f565b91905055505b609b546120c7906001600160a01b0316856129f0565b60068201549094506120d990856123a6565b600682015560058101546120ed90856123a6565b600582015581546120fe90856123a6565b8255600282015461210f90856123a6565b60028301556003810154825461212f9164e8d4a5100091610c1d9161296e565b6004830155504260069091015550506001606555565b61214e8161289f565b600081815260a360209081526040808320338452909152812060a280549192918490811061218c57634e487b7160e01b600052603260045260246000fd5b9060005260206000209060070201905060006121cd61173f8460040154610c2364e8d4a51000610c1d8760030154896000015461296e90919063ffffffff16565b90508015610e8e578060a05411156122345760a0546121ec9082612393565b60a055600060038085019190915582015483546122139164e8d4a5100091610c1d9161296e565b600484015560995461222f906001600160a01b031633836127f6565b610e8e565b60a054612242908290612393565b60038085019190915582015483546122649164e8d4a5100091610c1d9161296e565b600484015560a0805460009091556099546117dc906001600160a01b031633836127f6565b6033546001600160a01b031633146122e35760405162461bcd60e51b815260206004820181905260248201527f4f776e61626c653a2063616c6c6572206973206e6f7420746865206f776e657260448201526064016105b2565b6001600160a01b03811661235f5760405162461bcd60e51b815260206004820152602660248201527f4f776e61626c653a206e6577206f776e657220697320746865207a65726f206160448201527f646472657373000000000000000000000000000000000000000000000000000060648201526084016105b2565b61097b81612986565b60a25460005b8181101561238f5761237f8161289f565b6123888161366f565b905061236e565b5050565b600061239f8284613615565b9392505050565b600061239f82846135be565b6123bb81612145565b600081815260a360209081526040808320338452909152812060a28054919291849081106123f957634e487b7160e01b600052603260045260246000fd5b9060005260206000209060070201905060006124188360050154612b12565b6099546040516370a0823160e01b81523060048201529192506000916001600160a01b03909116906370a082319060240160206040518083038186803b15801561246157600080fd5b505afa158015612475573d6000803e3d6000fd5b505050506040513d601f19601f820116820180604052508101906124999190613456565b60975460058601546040517f6d533e9b0000000000000000000000000000000000000000000000000000000081526004810191909152620f4240602482015242604482015291925060009182916001600160a01b031690636d533e9b90606401606060405180830381600087803b15801561251357600080fd5b505af1158015612527573d6000803e3d6000fd5b505050506040513d601f19601f8201168201806040525081019061254b9190613542565b60975460058a01546040517f782ed90c0000000000000000000000000000000000000000000000000000000081526004810191909152620f424060248201529395509093506001600160a01b03169163782ed90c9150604401600060405180830381600087803b1580156125be57600080fd5b505af11580156125d2573d6000803e3d6000fd5b50506099546040516370a0823160e01b8152306004820152600093506001600160a01b0390911691506370a082319060240160206040518083038186803b15801561261c57600080fd5b505afa158015612630573d6000803e3d6000fd5b505050506040513d601f19601f820116820180604052508101906126549190613456565b905060006126628286612393565b60068801549091506126749087612393565b60068801556001880154600488015461268c91612393565b6004880155875461269d9087612393565b80895560038801546126ba9164e8d4a5100091610c1d919061296e565b6004890155600188015460009085106126d75788600101546126d9565b845b600060018b0181905560058b015589549091506127105760008a815260a46020526040812080549161270a83613658565b91905055505b818111156127c35760006127248284612393565b905080609f541061276b5760a15461273c90866123a6565b60a155609f5461274c9082612393565b609f55609954612766906001600160a01b031633846127f6565b6127bd565b60078a015461277a90866123a6565b60078b015561278c42620151806135be565b60088b0155609f805460009091556127bb336127a886846123a6565b6099546001600160a01b031691906127f6565b505b506127ea565b60a1546127d090856123a6565b60a1556099546127ea906001600160a01b031633846127f6565b50505050505050505050565b6040516001600160a01b0383166024820152604481018290526106579084907fa9059cbb00000000000000000000000000000000000000000000000000000000906064015b60408051601f198184030181529190526020810180517bffffffffffffffffffffffffffffffffffffffffffffffffffffffff167fffffffff0000000000000000000000000000000000000000000000000000000090931692909217909152612f50565b600060a282815481106128c257634e487b7160e01b600052603260045260246000fd5b90600052602060002090600702019050806002015443116128e3575061097b565b60068101546128f8574360029091015561097b565b600061291182600201544361239390919063ffffffff16565b90506000612938609e54610c1d85600001546116d9609c548761296e90919063ffffffff16565b905061295d61173f8460060154610c1d64e8d4a510008561296e90919063ffffffff16565b600384015550504360029091015550565b600061239f82846135f6565b600061239f82846135d6565b603380546001600160a01b038381167fffffffffffffffffffffffff0000000000000000000000000000000000000000831681179093556040519116919082907f8be0079c531659141344cd1fd0a4f28419497f9722a3daafe3b4186f6b6457e090600090a35050565b6040516370a0823160e01b815230600482015260009081906001600160a01b038516906370a082319060240160206040518083038186803b158015612a3457600080fd5b505afa158015612a48573d6000803e3d6000fd5b505050506040513d601f19601f82011682018060405250810190612a6c9190613456565b9050612a836001600160a01b038516333086613035565b6040516370a0823160e01b81523060048201526000906001600160a01b038616906370a082319060240160206040518083038186803b158015612ac557600080fd5b505afa158015612ad9573d6000803e3d6000fd5b505050506040513d601f19601f82011682018060405250810190612afd9190613456565b9050612b098183612393565b95945050505050565b6098546040517f5290ffbb0000000000000000000000000000000000000000000000000000000081526004810183905260009182916001600160a01b0390911690635290ffbb906024016101006040518083038186803b158015612b7557600080fd5b505afa158015612b89573d6000803e3d6000fd5b505050506040513d601f19601f82011682018060405250810190612bad91906133a2565b50929750505050505050505b919050565b60008054610100900460ff1615612c5b578160ff166001148015612be15750303b155b612c535760405162461bcd60e51b815260206004820152602e60248201527f496e697469616c697a61626c653a20636f6e747261637420697320616c72656160448201527f647920696e697469616c697a656400000000000000000000000000000000000060648201526084016105b2565b506000612bb9565b60005460ff808416911610612cd85760405162461bcd60e51b815260206004820152602e60248201527f496e697469616c697a61626c653a20636f6e747261637420697320616c72656160448201527f647920696e697469616c697a656400000000000000000000000000000000000060648201526084016105b2565b50600080547fffffffffffffffffffffffffffffffffffffffffffffffffffffffffffffff001660ff83161790556001612bb9565b600054610100900460ff16612d785760405162461bcd60e51b815260206004820152602b60248201527f496e697469616c697a61626c653a20636f6e7472616374206973206e6f74206960448201526a6e697469616c697a696e6760a81b60648201526084016105b2565b610ef8613086565b600054610100900460ff16612deb5760405162461bcd60e51b815260206004820152602b60248201527f496e697469616c697a61626c653a20636f6e7472616374206973206e6f74206960448201526a6e697469616c697a696e6760a81b60648201526084016105b2565b610ef86130fa565b801580612e9557506040517fdd62ed3e0000000000000000000000000000000000000000000000000000000081523060048201526001600160a01b03838116602483015284169063dd62ed3e9060440160206040518083038186803b158015612e5b57600080fd5b505afa158015612e6f573d6000803e3d6000fd5b505050506040513d601f19601f82011682018060405250810190612e939190613456565b155b612f075760405162461bcd60e51b815260206004820152603660248201527f5361666545524332303a20617070726f76652066726f6d206e6f6e2d7a65726f60448201527f20746f206e6f6e2d7a65726f20616c6c6f77616e63650000000000000000000060648201526084016105b2565b6040516001600160a01b0383166024820152604481018290526106579084907f095ea7b3000000000000000000000000000000000000000000000000000000009060640161283b565b6000612fa5826040518060400160405280602081526020017f5361666545524332303a206c6f772d6c6576656c2063616c6c206661696c6564815250856001600160a01b031661316c9092919063ffffffff16565b8051909150156106575780806020019051810190612fc3919061341e565b6106575760405162461bcd60e51b815260206004820152602a60248201527f5361666545524332303a204552433230206f7065726174696f6e20646964206e60448201527f6f7420737563636565640000000000000000000000000000000000000000000060648201526084016105b2565b6040516001600160a01b0380851660248301528316604482015260648101829052610e8e9085907f23b872dd000000000000000000000000000000000000000000000000000000009060840161283b565b600054610100900460ff166130f15760405162461bcd60e51b815260206004820152602b60248201527f496e697469616c697a61626c653a20636f6e7472616374206973206e6f74206960448201526a6e697469616c697a696e6760a81b60648201526084016105b2565b610ef833612986565b600054610100900460ff166131655760405162461bcd60e51b815260206004820152602b60248201527f496e697469616c697a61626c653a20636f6e7472616374206973206e6f74206960448201526a6e697469616c697a696e6760a81b60648201526084016105b2565b6001606555565b606061317b8484600085613183565b949350505050565b6060824710156131fb5760405162461bcd60e51b815260206004820152602660248201527f416464726573733a20696e73756666696369656e742062616c616e636520666f60448201527f722063616c6c000000000000000000000000000000000000000000000000000060648201526084016105b2565b6001600160a01b0385163b6132525760405162461bcd60e51b815260206004820152601d60248201527f416464726573733a2063616c6c20746f206e6f6e2d636f6e747261637400000060448201526064016105b2565b600080866001600160a01b0316858760405161326e919061356f565b60006040518083038185875af1925050503d80600081146132ab576040519150601f19603f3d011682016040523d82523d6000602084013e6132b0565b606091505b50915091506132c08282866132cb565b979650505050505050565b606083156132da57508161239f565b8251156132ea5782518084602001fd5b8160405162461bcd60e51b81526004016105b2919061358b565b600060208284031215613315578081fd5b813561239f816136a0565b600080600080600080600060e0888a03121561333a578283fd5b8735613345816136a0565b96506020880135613355816136a0565b95506040880135613365816136a0565b94506060880135613375816136a0565b93506080880135613385816136a0565b9699959850939692959460a0840135945060c09093013592915050565b600080600080600080600080610100898b0312156133be578081fd5b88516133c9816136a0565b60208a01519098506133da816136a0565b60408a01519097506133eb816136a0565b60608a015160808b015160a08c015160c08d015160e0909d01519b9e9a9d50929b919a9099929850909650945092505050565b60006020828403121561342f578081fd5b8151801515811461239f578182fd5b60006020828403121561344f578081fd5b5035919050565b600060208284031215613467578081fd5b5051919050565b60008060408385031215613480578182fd5b823591506020830135613492816136a0565b809150509250929050565b600080600080606085870312156134b2578384fd5b8435935060208501356134c4816136a0565b9250604085013567ffffffffffffffff808211156134e0578384fd5b818701915087601f8301126134f3578384fd5b813581811115613501578485fd5b886020828501011115613512578485fd5b95989497505060200194505050565b60008060408385031215613533578182fd5b50508035926020909101359150565b600080600060608486031215613556578283fd5b8351925060208401519150604084015190509250925092565b6000825161358181846020870161362c565b9190910192915050565b60006020825282518060208401526135aa81604085016020870161362c565b601f01601f19169190910160400192915050565b600082198211156135d1576135d161368a565b500190565b6000826135f157634e487b7160e01b81526012600452602481fd5b500490565b60008160001904831182151516156136105761361061368a565b500290565b6000828210156136275761362761368a565b500390565b60005b8381101561364757818101518382015260200161362f565b83811115610e8e5750506000910152565b6000816136675761366761368a565b506000190190565b60006000198214156136835761368361368a565b5060010190565b634e487b7160e01b600052601160045260246000fd5b6001600160a01b038116811461097b57600080fdfea26469706673582212208b5f44de5c451909e43e0e3107b7ce9d33fd53d2a80985a5b7e3fe0261588dcc64736f6c63430008020033",
  "devdoc": {
    "kind": "dev",
    "methods": {
      "add(uint256,uint256)": {
        "details": "Allows owner to add pool"
      },
      "burnBnt()": {
        "details": "Allows user or dao to burn BNT"
      },
      "claimBnt(uint256)": {
        "details": "Allows user to claim BNT for pools contract. User must wait 24 hours for BNT to unlock, after can call and receive."
      },
      "claimUserBnt(uint256)": {
        "details": "Allows user to claim BNT. User must wait 24 hours for BNT to unlock, then call claimBnt before claiming"
      },
      "fund(uint256,uint256)": {
        "details": "Allows user or dao to fund IL protection and/or staking rewards"
      },
      "getPendingRewards(uint256,address)": {
        "details": "Returns pending rewards of user"
      },
      "harvest(uint256)": {
        "details": "Allows user to harvest rewards"
      },
      "onTransferPosition(uint256,address,bytes)": {
        "details": "Transfers position to pools contract"
      },
      "owner()": {
        "details": "Returns the address of the current owner."
      },
      "renounceOwnership()": {
        "details": "Leaves the contract without owner. It will not be possible to call `onlyOwner` functions anymore. Can only be called by the current owner. NOTE: Renouncing ownership will leave the contract without an owner, thereby removing any functionality that is only available to the owner."
      },
      "set(uint256,uint256)": {
        "details": "Allows owner to set pool allocation point"
      },
      "setDappPerBlock(uint256)": {
        "details": "Allows owner to set DAPP token rewards issued per block"
      },
      "stakeDapp(uint256,uint256)": {
        "details": "Allows user to single sided stake DAPP tokens"
      },
      "stakeDappBnt(uint256,uint256)": {
        "details": "if there is no more bnt for single sided staking, users can still stake dapp-bnt tokens"
      },
      "transferOwnership(address)": {
        "details": "Transfers ownership of the contract to a new account (`newOwner`). Can only be called by the current owner."
      },
      "unstakeDapp(uint256)": {
        "details": "Allows user to unstake single sided staked DAPP tokens"
      },
      "unstakeDappBnt(uint256,uint256)": {
        "details": "Returns DAPPBNT LP tokens to user"
      }
    },
    "version": 1
  },
  "userdoc": {
    "kind": "user",
    "methods": {},
    "version": 1
  },
  "storageLayout": {
    "storage": [
      {
        "astId": 130,
        "contract": "contracts/DappStakingPool.sol:DappStakingPool",
        "label": "_initialized",
        "offset": 0,
        "slot": "0",
        "type": "t_uint8"
      },
      {
        "astId": 133,
        "contract": "contracts/DappStakingPool.sol:DappStakingPool",
        "label": "_initializing",
        "offset": 1,
        "slot": "0",
        "type": "t_bool"
      },
      {
        "astId": 910,
        "contract": "contracts/DappStakingPool.sol:DappStakingPool",
        "label": "__gap",
        "offset": 0,
        "slot": "1",
        "type": "t_array(t_uint256)50_storage"
      },
      {
        "astId": 10,
        "contract": "contracts/DappStakingPool.sol:DappStakingPool",
        "label": "_owner",
        "offset": 0,
        "slot": "51",
        "type": "t_address"
      },
      {
        "astId": 122,
        "contract": "contracts/DappStakingPool.sol:DappStakingPool",
        "label": "__gap",
        "offset": 0,
        "slot": "52",
        "type": "t_array(t_uint256)49_storage"
      },
      {
        "astId": 279,
        "contract": "contracts/DappStakingPool.sol:DappStakingPool",
        "label": "_status",
        "offset": 0,
        "slot": "101",
        "type": "t_uint256"
      },
      {
        "astId": 323,
        "contract": "contracts/DappStakingPool.sol:DappStakingPool",
        "label": "__gap",
        "offset": 0,
        "slot": "102",
        "type": "t_array(t_uint256)49_storage"
      },
      {
        "astId": 3198,
        "contract": "contracts/DappStakingPool.sol:DappStakingPool",
        "label": "liquidityProtection",
        "offset": 0,
        "slot": "151",
        "type": "t_contract(ILiquidityProtection)5400"
      },
      {
        "astId": 3201,
        "contract": "contracts/DappStakingPool.sol:DappStakingPool",
        "label": "liquidityProtectionStore",
        "offset": 0,
        "slot": "152",
        "type": "t_contract(ILiquidityProtectionStore)5424"
      },
      {
        "astId": 3204,
        "contract": "contracts/DappStakingPool.sol:DappStakingPool",
        "label": "dappToken",
        "offset": 0,
        "slot": "153",
        "type": "t_contract(IERC20Upgradeable)402"
      },
      {
        "astId": 3207,
        "contract": "contracts/DappStakingPool.sol:DappStakingPool",
        "label": "bntToken",
        "offset": 0,
        "slot": "154",
        "type": "t_contract(IERC20Upgradeable)402"
      },
      {
        "astId": 3209,
        "contract": "contracts/DappStakingPool.sol:DappStakingPool",
        "label": "dappBntPoolAnchor",
        "offset": 0,
        "slot": "155",
        "type": "t_address"
      },
      {
        "astId": 3211,
        "contract": "contracts/DappStakingPool.sol:DappStakingPool",
        "label": "dappPerBlock",
        "offset": 0,
        "slot": "156",
        "type": "t_uint256"
      },
      {
        "astId": 3213,
        "contract": "contracts/DappStakingPool.sol:DappStakingPool",
        "label": "startBlock",
        "offset": 0,
        "slot": "157",
        "type": "t_uint256"
      },
      {
        "astId": 3215,
        "contract": "contracts/DappStakingPool.sol:DappStakingPool",
        "label": "totalAllocPoint",
        "offset": 0,
        "slot": "158",
        "type": "t_uint256"
      },
      {
        "astId": 3217,
        "contract": "contracts/DappStakingPool.sol:DappStakingPool",
        "label": "dappILSupply",
        "offset": 0,
        "slot": "159",
        "type": "t_uint256"
      },
      {
        "astId": 3219,
        "contract": "contracts/DappStakingPool.sol:DappStakingPool",
        "label": "dappRewardsSupply",
        "offset": 0,
        "slot": "160",
        "type": "t_uint256"
      },
      {
        "astId": 3221,
        "contract": "contracts/DappStakingPool.sol:DappStakingPool",
        "label": "pendingBntIlBurn",
        "offset": 0,
        "slot": "161",
        "type": "t_uint256"
      },
      {
        "astId": 3225,
        "contract": "contracts/DappStakingPool.sol:DappStakingPool",
        "label": "poolInfo",
        "offset": 0,
        "slot": "162",
        "type": "t_array(t_struct(PoolInfo)3195_storage)dyn_storage"
      },
      {
        "astId": 3232,
        "contract": "contracts/DappStakingPool.sol:DappStakingPool",
        "label": "userPoolInfo",
        "offset": 0,
        "slot": "163",
        "type": "t_mapping(t_uint256,t_mapping(t_address,t_struct(UserPoolInfo)3180_storage))"
      },
      {
        "astId": 3236,
        "contract": "contracts/DappStakingPool.sol:DappStakingPool",
        "label": "userPoolTotalEntries",
        "offset": 0,
        "slot": "164",
        "type": "t_mapping(t_uint256,t_uint256)"
      }
    ],
    "types": {
      "t_address": {
        "encoding": "inplace",
        "label": "address",
        "numberOfBytes": "20"
      },
      "t_array(t_struct(PoolInfo)3195_storage)dyn_storage": {
        "base": "t_struct(PoolInfo)3195_storage",
        "encoding": "dynamic_array",
        "label": "struct DappStakingPool.PoolInfo[]",
        "numberOfBytes": "32"
      },
      "t_array(t_uint256)49_storage": {
        "base": "t_uint256",
        "encoding": "inplace",
        "label": "uint256[49]",
        "numberOfBytes": "1568"
      },
      "t_array(t_uint256)50_storage": {
        "base": "t_uint256",
        "encoding": "inplace",
        "label": "uint256[50]",
        "numberOfBytes": "1600"
      },
      "t_bool": {
        "encoding": "inplace",
        "label": "bool",
        "numberOfBytes": "1"
      },
      "t_contract(IERC20Upgradeable)402": {
        "encoding": "inplace",
        "label": "contract IERC20Upgradeable",
        "numberOfBytes": "20"
      },
      "t_contract(ILiquidityProtection)5400": {
        "encoding": "inplace",
        "label": "contract ILiquidityProtection",
        "numberOfBytes": "20"
      },
      "t_contract(ILiquidityProtectionStore)5424": {
        "encoding": "inplace",
        "label": "contract ILiquidityProtectionStore",
        "numberOfBytes": "20"
      },
      "t_mapping(t_address,t_struct(UserPoolInfo)3180_storage)": {
        "encoding": "mapping",
        "key": "t_address",
        "label": "mapping(address => struct DappStakingPool.UserPoolInfo)",
        "numberOfBytes": "32",
        "value": "t_struct(UserPoolInfo)3180_storage"
      },
      "t_mapping(t_uint256,t_mapping(t_address,t_struct(UserPoolInfo)3180_storage))": {
        "encoding": "mapping",
        "key": "t_uint256",
        "label": "mapping(uint256 => mapping(address => struct DappStakingPool.UserPoolInfo))",
        "numberOfBytes": "32",
        "value": "t_mapping(t_address,t_struct(UserPoolInfo)3180_storage)"
      },
      "t_mapping(t_uint256,t_uint256)": {
        "encoding": "mapping",
        "key": "t_uint256",
        "label": "mapping(uint256 => uint256)",
        "numberOfBytes": "32",
        "value": "t_uint256"
      },
      "t_struct(PoolInfo)3195_storage": {
        "encoding": "inplace",
        "label": "struct DappStakingPool.PoolInfo",
        "members": [
          {
            "astId": 3182,
            "contract": "contracts/DappStakingPool.sol:DappStakingPool",
            "label": "allocPoint",
            "offset": 0,
            "slot": "0",
            "type": "t_uint256"
          },
          {
            "astId": 3184,
            "contract": "contracts/DappStakingPool.sol:DappStakingPool",
            "label": "timeLocked",
            "offset": 0,
            "slot": "1",
            "type": "t_uint256"
          },
          {
            "astId": 3186,
            "contract": "contracts/DappStakingPool.sol:DappStakingPool",
            "label": "lastRewardBlock",
            "offset": 0,
            "slot": "2",
            "type": "t_uint256"
          },
          {
            "astId": 3188,
            "contract": "contracts/DappStakingPool.sol:DappStakingPool",
            "label": "accDappPerShare",
            "offset": 0,
            "slot": "3",
            "type": "t_uint256"
          },
          {
            "astId": 3190,
            "contract": "contracts/DappStakingPool.sol:DappStakingPool",
            "label": "totalDappStaked",
            "offset": 0,
            "slot": "4",
            "type": "t_uint256"
          },
          {
            "astId": 3192,
            "contract": "contracts/DappStakingPool.sol:DappStakingPool",
            "label": "totalDappBntStaked",
            "offset": 0,
            "slot": "5",
            "type": "t_uint256"
          },
          {
            "astId": 3194,
            "contract": "contracts/DappStakingPool.sol:DappStakingPool",
            "label": "totalLpStaked",
            "offset": 0,
            "slot": "6",
            "type": "t_uint256"
          }
        ],
        "numberOfBytes": "224"
      },
      "t_struct(UserPoolInfo)3180_storage": {
        "encoding": "inplace",
        "label": "struct DappStakingPool.UserPoolInfo",
        "members": [
          {
            "astId": 3163,
            "contract": "contracts/DappStakingPool.sol:DappStakingPool",
            "label": "amount",
            "offset": 0,
            "slot": "0",
            "type": "t_uint256"
          },
          {
            "astId": 3165,
            "contract": "contracts/DappStakingPool.sol:DappStakingPool",
            "label": "dappStaked",
            "offset": 0,
            "slot": "1",
            "type": "t_uint256"
          },
          {
            "astId": 3167,
            "contract": "contracts/DappStakingPool.sol:DappStakingPool",
            "label": "lpAmount",
            "offset": 0,
            "slot": "2",
            "type": "t_uint256"
          },
          {
            "astId": 3169,
            "contract": "contracts/DappStakingPool.sol:DappStakingPool",
            "label": "pending",
            "offset": 0,
            "slot": "3",
            "type": "t_uint256"
          },
          {
            "astId": 3171,
            "contract": "contracts/DappStakingPool.sol:DappStakingPool",
            "label": "rewardDebt",
            "offset": 0,
            "slot": "4",
            "type": "t_uint256"
          },
          {
            "astId": 3173,
            "contract": "contracts/DappStakingPool.sol:DappStakingPool",
            "label": "positionId",
            "offset": 0,
            "slot": "5",
            "type": "t_uint256"
          },
          {
            "astId": 3175,
            "contract": "contracts/DappStakingPool.sol:DappStakingPool",
            "label": "depositTime",
            "offset": 0,
            "slot": "6",
            "type": "t_uint256"
          },
          {
            "astId": 3177,
            "contract": "contracts/DappStakingPool.sol:DappStakingPool",
            "label": "claimableBnt",
            "offset": 0,
            "slot": "7",
            "type": "t_uint256"
          },
          {
            "astId": 3179,
            "contract": "contracts/DappStakingPool.sol:DappStakingPool",
            "label": "bntLocked",
            "offset": 0,
            "slot": "8",
            "type": "t_uint256"
          }
        ],
        "numberOfBytes": "288"
      },
      "t_uint256": {
        "encoding": "inplace",
        "label": "uint256",
        "numberOfBytes": "32"
      },
      "t_uint8": {
        "encoding": "inplace",
        "label": "uint8",
        "numberOfBytes": "1"
      }
    }
  }
}